:020000040800F2
:10000000B0E3002099020008C53A00085133000807
:10001000593A0008190C0008757700080000000024
:10002000000000000000000000000000294100085E
:10003000070D000800000000193B0008614400089B
:10004000B3020008B3020008B3020008B3020008BC
:10005000B3020008B3020008B3020008B3020008AC
:10006000B3020008B3020008B3020008B30200089C
:10007000B3020008B3020008B3020008B30200088C
:10008000B3020008B3020008B30200080000000039
:10009000000000000000000000000000B3020008A3
:1000A000B3020008DD450008B3020008B3020008EF
:1000B000B3020008B3020008B3020008B30200084C
:1000C000B3020008B3020008B3020008B30200083C
:1000D000B3020008B3020008B302000800000000E9
:1000E000B3020008B3020008B302000800000000D9
:1000F000000000000000000000000000B302000843
:1001000000000000B3020008B3020008B3020008B8
:1001100000000000000000000000000000000000DF
:10012000B3020008B3020008B30200081D0C000867
:10013000B302000800000000000000000000000002
:10014000000000000000000000000000093B000863
:10015000B3020008B3020008B3020008B3020008AB
:10016000B3020008B3020008000000000000000015
:10017000000000000000000000000000000000007F
:1001800000000000B30200080000000000000000B2
:10019000B3020008B302000800F002F800F06CF8A7
:1001A0000AA090E8000C82448344AAF10107DA45D2
:1001B00001D100F061F8AFF2090EBAE80F0013F0B8
:1001C000010F18BFFB1A43F0010318479CCB000036
:1001D000BCCB000010F8013B0A4413F0030408BF35
:1001E00010F8014B1D1108BF10F8015B641E05D00B
:1001F00010F8016B641E01F8016BF9D1002D15D0C8
:1002000010F8014B03F00C030C2BA1EB04040ABF04
:1002100010F8013BA4EB8314A4EB032405F10103C4
:1002200014F8016B5B1E01F8016BF9D5914238BFE0
:1002300010F8013BD1D3704700230024002500268D
:10024000103A28BF78C1FBD8520728BF30C148BF39
:100250000B607047642900F0ED80732900F003847F
:10026000002070471FB50AF079FD9DE8030000F0FB
:1002700033FB1FBD10B510BD00F020FC1146FFF789
:10028000F1FF09F0D7FB00F03EFC03B4FFF7F2FFEB
:1002900003BC00F06FFC0000094880470948004794
:1002A000FEE7FEE7FEE7FEE7FEE7FEE7FEE7FEE726
:1002B000FEE7FEE704480549054A064B7047000083
:1002C000C945000899010008B0B30020B0E3002040
:1002D000B0C30020B0C3002070B5064600F0E0FABD
:1002E000056806F10B0020F00704B4429CBF002013
:1002F00070BD2B466A68BAB11068A04210D304F1F1
:10030000080188423CBF5068586007D351681019F3
:1003100041601168091B016058601460101D70BDB8
:1003200013465268002AE7D12146284600F0C0FA59
:100330000028DED170BD70B50446051F00F0B0FA8C
:100340000068002C14BF446870BD002C18BFAC427C
:100350003CBF20466468F8D301680A18AA4218BF57
:10036000456003D12A680546114401602868411997
:10037000A1421CBF6C6070BD61686960216808445F
:10038000286070BD0FB41CB5074B06AA7B446946B4
:100390000090059800F035FB0020694600F044FB12
:1003A0001CBC5DF814FB0000990600000FB41CB5DE
:1003B0000C0007AA009001D02044401E074B7B444C
:1003C00069460190069800F01CFB002C03D069469A
:1003D000002000F029FB1CBC5DF814FB7106000036
:1003E00070B50C460546012A05D02878800600D550
:1003F000EA69002302E0012305E05B1C934202D27C
:10040000E05C0028F9D1A869E618C01AA861286A3A
:10041000184428622846AFF3008004E0D5E90121A2
:1004200014F8010B9047B442F8D32846AFF300808C
:1004300070BD00002DE9F0410646002410687529C2
:10044000314616A510D0AFF30080002802DA4042F2
:1004500013A507E031688A0701D512A502E0490714
:1004600004D511A5012401E0AFF3008000210A2288
:1004700006F1240709E0B0FBF2FCB0FBF2F302FB4B
:100480001C00303078541846491C0028F3D123460C
:100490002A463046BDE8F04100F054BA00000000A2
:1004A0002D0000002B000000200000002DE9F04787
:1004B0004FF0000A89460446C0F820A02046E168B3
:1004C0008847002876D0252806D0D4E90121904716
:1004D000206A401C2062F1E7E16820460025884739
:1004E000C4F81CA006460027C4F818A02A2E09D07C
:1004F000304607F087F938B304EB8708303EC8F878
:10050000186019E059F8041B204604EB870291613A
:10051000E1688847012F064618D1E069002820DAF3
:1005200025F020051DE0D8F8180000EB800006EB50
:1005300040003038C8F818002046E1688847064671
:1005400007F060F90028EED1012F0AD02E2E08D135
:100550002046E16888477F1C0646022F45F02005AB
:10056000C4DBA069002803DA404245F00105A06120
:10057000E80701D025F01005B6B1A6F14100192811
:1005800002D8203645F400654A46314620462560AB
:100590004D46FFF75FFE58B1012806D0ED1D25F04E
:1005A000070000F1080989E704E005F1040985E77F
:1005B00030468AE7206ABDE8F08740EA0103024638
:1005C00030B59B0710D14FF0013400E008C208C9D4
:1005D0001D1B9D4315EAC41FF8D013F0FF0102F85C
:1005E000011B0DD01B0AF8E711F8013B002B02F8A4
:1005F000013B05D011F8013B002B02F8013BF3D180
:1006000030BD10B5431C02E010F8011B71B1810729
:10061000FAD14FF0013202C88C1A8C4314EAC2118D
:10062000F9D0C01A0A0603D0C01E10BDC01A10BDF2
:100630000A0401D0801E10BD0902FCD0401E10BD6E
:10064000032A40F2308010F0030C00F0158011F8FE
:10065000013BBCF1020F624498BF11F801CB00F8D6
:10066000013B38BF11F8013BA2F1040298BF00F82A
:1006700001CB38BF00F8013B11F0030300F02580E7
:10068000083AC0F0088051F8043B083A51F804CB0E
:10069000A0E80810F5E7121D5CBF51F8043B40F8D4
:1006A000043BAFF30080D20724BF11F8013B11F8DF
:1006B00001CB48BF11F8012B24BF00F8013B00F823
:1006C00001CB48BF00F8012B704710B5203AC0F0AD
:1006D0000B80B1E81850203AA0E81850B1E8185043
:1006E000A0E81850BFF4F5AF5FEA027C24BFB1E880
:1006F0001850A0E8185044BF18C918C0BDE81040F1
:100700005FEA827C24BF51F8043B40F8043B08BFF9
:100710007047D20728BF31F8023B48BF11F8012BC0
:1007200028BF20F8023B48BF00F8012B70474FF06C
:1007300000020429C0F0128010F0030C00F01B80AE
:10074000CCF1040CBCF1020F18BF00F8012BA8BFBC
:1007500020F8022BA1EB0C0100F00DB85FEAC17C80
:1007600024BF00F8012B00F8012B48BF00F8012B33
:1007700070474FF0000200B5134694469646203964
:1007800022BFA0E80C50A0E80C50B1F12001BFF44A
:10079000F7AF090728BFA0E80C5048BF0CC05DF8B0
:1007A00004EB890028BF40F8042B08BF704748BFFE
:1007B00020F8022B11F0804F18BF00F8012B704772
:1007C00010B5044610F0030F08BF11F0030F40F0FE
:1007D00015804FF0013E121FC0F20E8051F8043B0D
:1007E000A3EB0E0C2CEA030C1CEACE1C08BF40F84D
:1007F000043BF0D0A1F1040102F10402521E08DB17
:1008000011F8013B002B00F8013BF7D11146FFF72F
:100810008EFF204610BD00004FF0013C50F8042B25
:1008200051F8043B9A4221D1A2EB0C03934313EA03
:10083000CC1317D150F8042B51F8043B9A4215D130
:10084000A2EB0C03934313EACC130BD150F8042B07
:1008500051F8043B9A4209D1A2EB0C03934313EAEB
:10086000CC13DBD04FF00000704700BFD01A01BAA4
:10087000B1FA81F101F0180122FA01F0CB40C1F187
:100880002001DBB2C0B2C01A2CFA01F3D11A914395
:1008900011EAC311E6D170477047704770470000F6
:1008A0000048704754B30020704770477047704746
:1008B00038B504460A4600206946AFF30080002898
:1008C00008BF38BD02460099204600F0D5F8012047
:1008D00038BD012000F0EAB8F8B5AFF30080054656
:1008E00000200C46102000BF0646A819A0420DD9D2
:1008F000324669460020AFF30080070008BF00F0D1
:10090000D5F80098A04218BF0546C419FFF7C8FFE4
:1009100005600746F01D20F007004619284600F044
:100920000AF8B44208BFF8BDA21B31463868BDE8DA
:10093000F84000F0A1B800210160C0E90110704743
:10094000102070472DE9F0470D469946924604461F
:1009500000F124080168880604D5E06921F010013F
:10096000216000E00120A84201DD471B00E00027D4
:10097000A1697A1902EB0900081AA0612078C00663
:1009800002D42046AFF30080002608E0D4E901211C
:100990001AF806009047206A401C761C20624E45DB
:1009A000F4DB2078C0060AD52046AFF3008006E0CD
:1009B000D4E9012130209047206A401C2062381E73
:1009C000A7F10107F4DC07E0D4E9012118F80500DC
:1009D0009047206A401C2062281EA5F10105F3DC27
:1009E0002046AFF300802078000602D50220BDE843
:1009F000F0870120FBE7000001694A1C02610878CA
:100A0000704700B58FB0CDE901310021059105494E
:100A10007944CDE9031011466846FFF747FD0FB052
:100A200000BD0000E5FFFFFF0A6802F8010B0A6045
:100A30007047D1E900239A4202D2531C0B60107018
:100A4000704710B5436913B1AFF3008001E0FFF7C1
:100A5000C7FC012010BD127800F124010A700022A9
:100A60004A700122EDE711684FF0FF32E9E700001C
:100A7000004870474CB30020034640688C4600286D
:100A800018BF88423CBF03464068F8D31868184432
:100A9000884207D00CF1030020F00700001D411A26
:100AA000521A0146081D0A60FFF745BC10B500F058
:100AB00039F8BDE8104000F02FB870477546FFF7D1
:100AC000D7FFAE4605006946534620F0070085462D
:100AD00018B020B5FFF7EEFBBDE820404FF0000650
:100AE0004FF000074FF000084FF0000B21F0070116
:100AF000AC46ACE8C009ACE8C009ACE8C009ACE859
:100B0000C0098D46704710B50446AFF300802046FB
:100B1000BDE81040FFF7B9BB002801D000F02AB8AB
:100B20007047000010B5012805D0002103A000F097
:100B300027F8012010BD09A1F8E7000053494752EA
:100B4000544D454D3A204F7574206F66206865619D
:100B500070206D656D6F7279000000003A20486565
:100B60006170206D656D6F727920636F7272757040
:100B70007465640001491820ABBEFEE72600020040
:100B800070B505460C460A2000E06D1C00F011F817
:100B900035B128780028F8D102E0641C00F009F88B
:100BA00014B120780028F8D1BDE870400A20AFF3D6
:100BB000008008B569468DF800000320ABBE08BD73
:100BC00010B500200C4908704FF6FF7000F0E6F8F1
:100BD00001200A4908700020094908800949088055
:100BE0000120094908800020084908700848017858
:100BF000084803F083FB10BD6F9B00206499002020
:100C0000689B0020669B00206A9B00203400002027
:100C10006199002040A6002000BFFEE710B500BF8C
:100C20000E480068C0F3C06048B100BF4FF00060DC
:100C30000A49886000BF0120094908700DE000BF23
:100C400006480068C0F3406038B100BF4FF0007044
:100C50000249886000BF00F057F810BD00640240F0
:100C60005899002010B54FF400510D4800F048FF8E
:100C70000C48007830B1012807D0022808D003289A
:100C80000CD108E009F0D8FC08E00AF02BF805E0E8
:100C900009F092FC02E0FFF793FF00BF00BF10BD18
:100CA000000802406F9B00200146002200BF05E0C3
:100CB000002301F5617040F82230521C102AF7D34E
:100CC000002204E0002301F58E708354521CB2F51B
:100CD000007FF7D300200870487001208870002042
:100CE000C1F8C40301230B7640238B7100234B769C
:100CF00081F81C33012381F81D33002381F81F3351
:100D000081F81E337047704772B610E04FF4005000
:100D10000749886100BF4FF4FC6000F03FF84FF4D2
:100D20000051034802F032FC1F2000F037F8EDE7D5
:100D30000008024030B504460D46002229462046F0
:100D400000F002F830BD0000F0B503460125002494
:100D50001148407A01281CDA00200F4E767A0E4F97
:100D6000B8553846467A001D40F82630001F467AAE
:100D7000083082553E46707A461C7E72044604F165
:100D8000300008703A2048702F2088700020C8700A
:100D900000252846F0BD000040B3002038B50446C9
:100DA000F0231A4600210846009400F001F838BDEF
:100DB0002DE9FF4F87B0824616461F461498000A59
:100DC00005901498C0B20490DDE9040101EB002005
:100DD00080B20390A6EB0A000899791A48434FEABB
:100DE00040084FF48074B8FBF4F004FB1080A8EBCB
:100DF0000000B0FBF4F00290B8FBF4F004FB108BA1
:100E00000694069C6000FFF767FA8146002503E020
:100E1000039829F815006D1CA542F9D3781EC3B2BA
:100E2000701EC2B25046089900F07EFBCDF80490C7
:100E3000002504E0A1B2019800F04EFC6D1C029860
:100E40008542F7D3BBF1000F04D01FFA8BF1019854
:100E500000F042FC4846FFF76EFA0BB0BDE8F08F99
:100E60002DE9FE4F80460F4692464FF000090026BE
:100E7000002000903A484068B0F806B03848406812
:100E80008588E81DC11700EB5171C910C5EBC10180
:100E9000C9B20291AAF12001314A5268D288514365
:100EA0002F4A52689288D01DC21700EB5272D2109E
:100EB0002B4B5B681B6801FB0231019100BF4AE0CC
:100EC000E81DC11700EB5171CA10019902FB09140A
:100ED000C11700EB5171C910012904D0022905D0B6
:100EE000032909D109E0207800900FE0607821788B
:100EF00040EA0120009009E000BF207800046178FA
:100F000040EA0120A1780843009000BF00BF0026FE
:100F10001BE0A91B02980844401E012101FA00F0C1
:100F20000099084040B10E4B1A88F9B208EB06034D
:100F3000D8B200F017F807E0094B5A88F9B208EB6D
:100F40000603D8B200F00EF8761CAE42E1D3781C4E
:100F500087B209F10109D945B2D3BDE8FE8F00007F
:100F60002C0000202DE9FE4F81468A461446200AB7
:100F7000019004F0FF0B019800EB0B2080B2009071
:100F800004260296029E7000FFF7A6F90746002588
:100F900004E0009827F81500681C85B2B542F8D324
:100FA0000AF10100C3B209F10100C2B2514648463C
:100FB00000F0BAFAB8460821404600F08DFB3846EA
:100FC000FFF7B9F9BDE8FE8F10B54FF48061FE4818
:100FD00002F0DFFA0821FD4802F0D5FA0821FB48AB
:100FE00002F0D7FAEF2000F0FDFBEB2000F0FAFB57
:100FF000142000F00FFCFE2000F0F4FBEF2000F0C6
:10100000F1FBEB2000F0EEFB142000F003FC842049
:1010100000F0E8FB402000F0FDFB852000F0E2FB43
:10102000FF2000F0F7FB862000F0DCFBFF2000F043
:10103000F1FB872000F0D6FBFF2000F0EBFB8820BF
:1010400000F0D0FB0A2000F0E5FB892000F0CAFB8D
:10105000212000F0DFFB8A2000F0C4FB002000F01C
:10106000D9FB8B2000F0BEFB802000F0D3FB8C204E
:1010700000F0B8FB012000F0CDFB8D2000F0B2FBAA
:10108000012000F0C7FB8E2000F0ACFBFF2000F039
:10109000C1FB8F2000F0A6FBFF2000F0BBFBB620B9
:1010A00000F0A0FB002000F0B5FB002000F0B2FB38
:1010B000362000F097FB282000F0ACFB3A2000F02F
:1010C00091FB052000F0A6FB902000F08BFB082090
:1010D00000F0A0FB082000F09DFB082000F09AFB28
:1010E000082000F097FBBD2000F07CFB062000F0FC
:1010F00091FBBC2000F076FB002000F08BFBFF2072
:1011000000F070FB602000F085FB012000F082FB06
:10111000042000F07FFBC32000F064FB132000F0EC
:1011200079FBC42000F05EFB132000F073FBC920A4
:1011300000F058FB222000F06DFBBE2000F052FBB7
:10114000112000F067FBE12000F04CFB102000F0C4
:1011500061FB0E2000F05EFBDF2000F043FB21204E
:1011600000F058FB0C2000F055FB022000F052FB71
:10117000F02000F037FB452000F04CFB092000F088
:1011800049FB082000F046FB082000F043FB262026
:1011900000F040FB2A2000F03DFBF12000F022FB94
:1011A000432000F037FB702000F034FB722000F089
:1011B00031FB362000F02EFB372000F02BFB6F2098
:1011C00000F028FBF22000F00DFB452000F022FB90
:1011D000092000F01FFB082000F01CFB082000F095
:1011E00019FB262000F016FB2A2000F013FBF32049
:1011F00000F0F8FA432000F00DFB702000F00AFB2D
:10120000722000F007FB362000F004FB372000F0CE
:1012100001FB6F2000F0FEFAED2000F0E3FA1B2046
:1012200000F0F8FA0B2000F0F5FAAE2000F0DAFA40
:10123000772000F0EFFACD2000F0D4FA632000F020
:10124000E9FA702000F0CEFA072000F0E3FA072058
:1012500000F0E0FA042000F0DDFA0E2000F0DAFAE7
:101260000F2000F0D7FA092000F0D4FA072000F090
:10127000D1FA082000F0CEFA032000F0CBFAE820E3
:1012800000F0B0FA342000F0C5FA622000F0AAFAAB
:10129000182000F0BFFA0D2000F0BCFA712000F019
:1012A000B9FAED2000F0B6FA702000F0B3FA702021
:1012B00000F0B0FA182000F0ADFA0F2000F0AAFA02
:1012C000712000F0A7FAEF2000F0A4FA702000F0DF
:1012D000A1FA702000F09EFA632000F083FA182033
:1012E00000F098FA112000F095FA712000F092FABF
:1012F000F12000F08FFA702000F08CFA702000F0DE
:1013000089FA182000F086FA132000F083FA712081
:1013100000F080FAF32000F07DFA702000F07AFAF5
:10132000702000F077FA642000F05CFA282000F0CA
:1013300071FA292000F06EFAF12000F06BFA01201A
:1013400000F068FAF12000F065FA002000F062FA7F
:10135000072000F05FFA662000F044FA3C2000F01D
:1013600059FA002000F056FACD2000F053FA672019
:1013700000F050FA452000F04DFA452000F04AFAFE
:10138000102000F047FA002000F044FA002000F09E
:1013900041FA002000F03EFA672000F023FA002016
:1013A00000F038FA3C2000F035FA002000F032FA64
:1013B000002000F02FFA002000F02CFA012000F0AD
:1013C00029FA542004E0000000040240000002401A
:1013D00000F020FA102000F01DFA322000F01AFA76
:1013E000982000F017FA742000F0FCF9102000F0AB
:1013F00011FA852000F00EFA802000F00BFA002090
:1014000000F008FA002000F005FA4E2000F002FA81
:10141000002000F0FFF9982000F0E4F93E2000F0F1
:10142000F9F9072000F0F6F9352000F0DBF921206A
:1014300000F0D8F9112000F0D5F9292000F0D2F9F8
:1014400010BD000070B505460E46144600202E491A
:10145000087054E02C480078082844D2DFE800F0F7
:10146000040C141C243B332B4FF4784000F086F816
:1014700001202549087036E04FF6205000F07EF834
:101480000220214908702EE04FF6C06000F076F887
:1014900003201D49087026E04FF4FC6000F06EF850
:1014A0000420194908701EE01F2000F067F807208B
:1014B0001549087017E044F6100000F05FF80620A8
:1014C000114908700FE048F2100000F057F80520AD
:1014D0000D49087007E04FF67F1000F04FF800202C
:1014E0000949087000BF00BF227831462846FFF73F
:1014F000B7FC064840688088284485B2641C207880
:101500000028A7D170BD0000350000202C0000206D
:1015100001494880704700002C00002001494860C4
:10152000704700002C0000202DE9F04104460D46D4
:1015300016461F462A2000F055F9002000F06AF9EF
:10154000E0B200F067F9002000F064F9F0B200F0BA
:1015500061F92B2000F046F9002000F05BF9E8B2B9
:1015600000F058F9002000F055F9F8B200F052F9F7
:101570002C2000F037F9BDE8F08100000149088017
:10158000704700002C0000202DE9F04705468846F2
:1015900014462046FFF735F800F0FF09EFB21A486D
:1015A0004068808809F102014843C5F1F001884292
:1015B00018DD00260BE0A25D41463846FFF750FCDF
:1015C0001148406800793844C7B2701CC6B2C5F1F2
:1015D000F0000D494968898890FBF1F0801EB04207
:1015E000E9D10EE00AE0227841462846FFF738FCB0
:1015F000054840688088284485B2641C207800280B
:10160000F1D1BDE8F08700002C0000202DE9F05F4B
:1016100004460F464FF6FF70FFF7C0FB4FF6FF7012
:10162000FFF776FF2A48FFF779FF0020FFF7A6FFB4
:1016300023262325C6F1F000401B264949688988E6
:1016400090FBF1F000F0FF08C6F1F000401B2149CB
:101650004968C98890FBF1F0401C00F0FF0A18FBB4
:101660000AF000F0FF0B781E0BFB00442AE04FF05D
:10167000000918E020780A2806D1164840688079C9
:101680002844C5B2641C13E0227829463046FFF78F
:10169000E7FB1048406800793044C6B2641C09F189
:1016A000010000F0FF09C14502DA20780028E1D1ED
:1016B00000BF0848406880792844C5B22326CD2D54
:1016C00000DD02E020780028D1D100BFBDE8F09F06
:1016D000000000202C0000202DE9F04106460C46B9
:1016E0004FF48061394801F04EFF0421384801F081
:1016F00050FF0020374908700321374801F092FE5F
:1017000035480321354A525C024452686FF30F0298
:101710002243324B5B5C03445A6000BF00BF2F4A38
:10172000525C825842F010022C4B5B5CC25000BFEE
:1017300000BF4FF000602849886000BF00BF8010E4
:10174000886000BF084603213246254F07F10C038D
:1017500007468C46DFF8848018F80C8057F808801C
:1017600008F0C00500BF402D08D11C4F7F5C074426
:10177000FA601A4F7F5C0744BB6007E0174F7F5C3D
:101780000744BA60154F7F5C0744FB6000BF1248F6
:101790000321124A525C825842F001020F4B5B5CFB
:1017A000C25000BF00BF0B4800780028FBD00321C7
:1017B000094801F037FE0020064908704FF48061A7
:1017C000024801F0E6FEBDE8F0810000000402409E
:1017D0000000024058990020006402401EC8000822
:1017E0000030014010B504464FF48061074801F015
:1017F000CAFE0421064801F0C6FE204602F07AFC2B
:101800004FF48061014801F0C4FE10BD00040240A5
:101810000000024010B504464FF48061074801F013
:10182000B2FE0421064801F0B4FE204602F062FC3C
:101830004FF48061014801F0ACFE10BD000402408D
:101840000000024070B503460C4600200AE033F861
:101850001060351213F8101005EB012623F8106004
:10186000461CB0B202FB04F68642F0DC70BD2DE9E6
:10187000FE4F83460F4690461D46DDF83090DDE969
:101880000D0148434FEA400A4FF40074BAFBF4F0EC
:1018900004FB10A0AAEB0000B0FBF4F00190BAFB2F
:1018A000F4F004FB10A0009008EB090CACF1010C63
:1018B0000CF0FF0307EB050CACF1010C0CF0FF0280
:1018C00008F0FF01F8B2FFF72FFE09F0FF02E9B2BE
:1018D0005846FFF7B7FFCDF808B0002606E0A1B2E2
:1018E000029A06FB0420FFF7F7FE761C0198864259
:1018F000F5D3009A91B2029A06FB0420FFF7ECFEA2
:1019000009F0FF02E9B25846FFF79CFFBDE8FE8FE1
:1019100070B5044600F004F906462546681C10B16F
:1019200004480078054400BF00F0FAF8801BA84284
:10193000FAD370BD789B0020F8B502460B4600250F
:10194000002400200021C7E0012606FA01F51E68E8
:1019500006EA0504AC4274D11E7906F00306012E96
:1019600004D01E7906F00306022E13D190684F00B2
:101970000326BE40B0434F00DE68BE403043906057
:10198000506801268E40B0431E79C6F300168E4083
:10199000304350601E7906F00306032E09D0D0684C
:1019A0004F000326BE40B0434F009E68BE40304308
:1019B000D0601E7906F00306022E13D1CF0802F183
:1019C000200656F827004E07F70E0F26BE40B043FC
:1019D0004F07FF0E1E69BE403043CF0802F12006BC
:1019E00046F8270010684F000326BE40B0431E791A
:1019F00006F003064F00BE40304310605E6806F4F8
:101A00004036002E67D000BF00260096344E366860
:101A100046F48046324F3E603E46366806F48046C5
:101A2000009600BF00BF2F4E8F0856F827008E0784
:101A3000370F0F26BE40B0432B4EB24202D10026D4
:101A400015E048E0294EB24201D101260FE0284EB0
:101A5000B24201D102260AE0264EB24201D103264B
:101A600005E0254EB24201D1042600E007268F078B
:101A70003F0FBE4030431B4E8F0846F827001F4ED5
:101A80003068A0435E6806F4801606B120431B4E02
:101A90003060361D3068A0435E6806F4001606B15B
:101AA0002043164E361D3060144E361F3068A0435A
:101AB0005E6806F4003606B12043104E361F3060D3
:101AC000361F3068A0435E6806F4803606B12043B6
:101AD0000A4E083E3060491C1029FFF435AFF8BDAE
:101AE000443802400838014000000240000402402F
:101AF00000080240000C024000100240083C014077
:101B000010B5426921EA020302EA010443EA0443F0
:101B1000836110BD0AB1816101E00B0483617047EC
:101B20000148006870470000709B002010B5044613
:101B3000D4F8000303F0EAF910BD10B50446D4F858
:101B4000000303F0EEF910BD10B50446206805F05F
:101B500091F910BD10B50446206805F092F910BD4A
:101B6000024601EB410000EBC10302F1380000EB3B
:101B7000830090F828007047024601EB410000EB1B
:101B8000C10302F1380000EB83008069704770B533
:101B900004460D46002600BF94F8F802012801D142
:101BA000022070BD012084F8F80200BF2946206899
:101BB00005F078F900BF002084F8F80200BF304635
:101BC000EFE72DE9FE4F04460D4616461F46DDE9B8
:101BD0000D9ADDF8308000BF94F8F802012802D198
:101BE0000220BDE8FE8F012084F8F80200BF00212A
:101BF00005EB450000EBC50204F1380000EB820064
:101C0000417105EB450000EBC50104F1380000F817
:101C1000217005EB450000EBC50104F1380000EB35
:101C20008100A0F808A005EB450000EBC50104F118
:101C3000380000EB8100457005EB450000EBC50165
:101C400004F1380000EB810080F8079006F07F0176
:101C500005EB450000EBC50204F1380000EB820003
:101C6000817006F0800080280AD1012105EB450033
:101C700000EBC50204F1380000EB8200C17009E0FE
:101C8000002105EB450000EBC50204F1380000EB34
:101C90008200C17005EB450000EBC50104F138007E
:101CA00000EB810080F804808DE800073B46324657
:101CB0002946206805F0AFF9834600BF002084F86C
:101CC000F80200BF58468CE770472DE9F05F0446E4
:101CD0000D4616461F46DDE90C9BDDE90A8A05EB39
:101CE000450000EBC50104F1380000EB8100C6702F
:101CF00005EB450000EBC50104F1380000EB810065
:101D0000C771B8F1000F14D1032105EB450000EBBA
:101D1000C50204F1380000EB8200817205EB45003A
:101D200000EBC50104F1380000EB810080F805B03C
:101D300009E0022105EB450000EBC50204F1380083
:101D400000EB8200817237B1012F76D0022F33D0A1
:101D5000032F73D173E0B8F1010F2CD106BBB9F199
:101D6000000F09D1012105EB450000EBC50204F18C
:101D7000380000EB8200417705EB450000EBC50120
:101D800004F1380000EB8100407F50B9002105EBE1
:101D9000450000EBC50204F1380000EB82008172BF
:101DA00009E0022105EB450000EBC50204F1380013
:101DB00000EB820081728FE0FEB905EB450000EB7D
:101DC000C50104F1380000EB8100407F50B90021CB
:101DD00005EB450000EBC50204F1380000EB820082
:101DE000817229E0022105EB450000EBC50204F1F8
:101DF000380000EB820081721EE005EB450000EB2D
:101E0000C50104F1380000EB8100007F50B90021CA
:101E100005EB450000EBC50204F1380000EB820041
:101E2000817209E0022105EB450000EBC50204F1D7
:101E3000380000EB820081724EE041E04BE0FEB9D9
:101E400005EB450000EBC50104F1380000EB810013
:101E5000407F50B9002105EB450000EBC50204F1BD
:101E6000380000EB8200817229E0022105EB450079
:101E700000EBC50204F1380000EB820081721EE025
:101E800005EB450000EBC50104F1380000EB8100D3
:101E9000007F50B9002105EB450000EBC50204F1BD
:101EA000380000EB8200817209E0022105EB450059
:101EB00000EBC50204F1380000EB820081720BE0F8
:101EC000002105EB450000EBC50204F1380000EBF2
:101ED0008200817200E000BF00BF05EB450000EB0F
:101EE000C50104F1380000EB8100C0F80CA005EB3F
:101EF000450000EBC50104F1380000EB8100C0F89B
:101F00001490002105EB450000EBC50204F13800F8
:101F100000EB820080F8281005EB450000EBC502BD
:101F200004F1380000EB8200816105EB450000EB15
:101F3000C50104F1380000EB81004570002105EB7C
:101F4000450000EBC50204F1380000EB820080F888
:101F50002910227C05EB450303EBC50C04F1380383
:101F600003EB8C01206805F03FF9BDE8F09F2DE9F7
:101F7000F04104462768B846206804F08EFF012827
:101F80007DD1206805F0B8FA08B9BDE8F081206875
:101F900005F0B2FA00F40010B0F5001F03D14FF4C1
:101FA000001021684861206805F0A6FA00F480104E
:101FB000B0F5801F03D14FF480102168486120687C
:101FC00005F09AFA00F08060B0F1806F03D14FF015
:101FD000806021684861206805F08EFA00F00200F8
:101FE000022801D121684861206805F085FA00F0D7
:101FF0000050B0F1005F16D14FF0005021684861E9
:10200000D8F8400400F0010068B91021384604F007
:1020100005FF384604F0D8FE0121206805F04AFA91
:102020002046FFF78AFD206805F066FA00F0807010
:10203000B0F1807F02D1204601F06DF8206805F0F4
:102040005BFA00F00800082805D1204600F0F8F8F7
:10205000082021684861206805F04EFAC0F300109E
:1020600080B12068806920F01000216888612046D6
:1020700001F0ACF82068806940F0100000E030E02A
:1020800021688861206805F037FA00F00070B0F12F
:10209000007F26D1206805F09FF80646002519E04C
:1020A00005F00F0101208840304090B108F5A06094
:1020B00000EB4510006800F40040B0F5004F04D17B
:1020C000E9B2204600F0E6F903E0E9B2204600F06C
:1020D000EFFC6D1CA068A842E2D84FF000702168A8
:1020E000486100BF51E730B58BB0044614B90120F8
:1020F0000BB030BD256894F8F90228B9002084F8A7
:10210000F802204600F02AF8032084F8F902E86B70
:1021100000F4807008B900212161206804F0FEFD00
:10212000282204F110016846FEF7CFFA94E80F0068
:1021300004F086FD0121206805F031FA282204F11F
:1021400010016846FEF7C1FA94E80F0005F034F973
:10215000012084F8F9020020CAE7000010B586B01B
:102160000446142101A8FEF704FB2068B0F1A04F3B
:102170004BD100BF002000902548006840F00100CE
:10218000234908600846006800F00100009000BF85
:1021900000BF4815019000200290039001A91D483E
:1021A000FFF7CAFB4FF4C0500190022002900020BC
:1021B0000390032004900A20059001A91548FFF719
:1021C000BBFB00BF1248001D006840F080001049B2
:1021D000091D086000BF002000900D481430006801
:1021E00040F480400A49143108600846006800F451
:1021F0008040009000BF00BF00BF00221146432076
:1022000000F0DCF8432000F0C9F806B010BD000073
:10221000303802400000024010B50446D4F80003F4
:1022200002F04AFF10BD10B50446D4F8000302F0D6
:1022300047FF10BD10B50446206805F092F910BDA7
:1022400010B50446D4F8000302F0DEFE10BD10B550
:10225000044600BF94F8F802012801D1022010BD05
:10226000012084F8F80200BF0121206804F080FDFD
:10227000206804F0A2FD00BF002084F8F80200BF2F
:1022800000BFECE710B5044600BF94F8F80201283F
:1022900001D1022010BD012084F8F80200BF20689F
:1022A00005F0B1F900BF002084F8F80200BF00BFBC
:1022B000F0E7000003480068034909780844014931
:1022C00008607047709B0020789B002010B50D4877
:1022D000006840F400700B4908600846006840F44C
:1022E000806008600846006840F480700860032041
:1022F00000F0A2F80F2000F007F800F02BF8002003
:1023000010BD0000003C024070B504460E48007845
:102310004FF47A71B1FBF0F00C490968B1FBF0F5AC
:10232000284600F09DF808B1012070BD102C07D29E
:1023300000222146501E00F041F80548046001E0EB
:102340000120F2E70020F0E7789B00207C9B002032
:10235000749B002008B500BF002000900E48006864
:1023600040F480400C4908600846006800F4804052
:10237000009000BF00BF00BF00200090081F006851
:1023800040F08050091F08600846006800F0805047
:10239000009000BF00BF08BD443802400146084617
:1023A000002809DB00F01F0301229A4043099B002B
:1023B00003F1E023C3F8002100BF70472DE9F05F6F
:1023C00080460D461646002705F0ECF907463946CB
:1023D0002A46334601F00700C0F1070ABAF1040F9C
:1023E00002D94FF0040A01E0C0F1070AD14600F11A
:1023F000040ABAF1070F02D24FF0000A01E0A0F17F
:10240000030AD4464FF0010A0AFA09FAAAF1010AAE
:102410000AEA020A0AFA0CFA4FF0010B0BFA0CFB5B
:10242000ABF1010B0BEA030B4AEA0B0421464046D1
:1024300005F0D4F9BDE8F09F00BF00F00702064B9D
:1024400019684FF6FF031940044B0B4343EA02217E
:10245000014B196000BF70470CED00E00000FA0569
:1024600070B504462546681EB0F1807F01D3012077
:102470000FE0681E4FF0E02148610F214FF0FF3060
:1024800005F0ACF900204FF0E021886107200861D9
:10249000002070BD2DE9F04705468846D5F800902C
:1024A0004E46444606F5A06000EB4410806800F0FC
:1024B0000400042815D1042106F5A06000EB4410A7
:1024C0008160062104EB440000EBC40205F13800F2
:1024D00000EB820080F82910E1B2286804F0E2FCE9
:1024E0008EE006F5A06000EB4410806800F4807078
:1024F000B0F5807F16D14FF4807106F5A06000EB37
:1025000044108160072104EB440000EBC40205F194
:10251000380000EB820080F82910E1B2286804F04E
:10252000C1FC6DE006F5A06000EB4410806800F08F
:102530002000202806D1202106F5A06000EB4410E1
:1025400081605DE006F5A06000EB4410806800F05B
:102550000800082815D1082106F5A06000EB4410FA
:102560008160052104EB440000EBC40205F1380052
:1025700000EB820080F82910E1B2286804F092FC98
:102580003EE006F5A06000EB4410806800F4806037
:10259000B0F5806F16D14FF4806106F5A06000EBB6
:1025A00044108160082104EB440000EBC40205F1F3
:1025B000380000EB820080F82910E1B2286804F0AE
:1025C00071FC1DE006F5A06000EB4410806800F08F
:1025D0008000802814D1802106F5A06000EB441013
:1025E0008160062104EB440000EBC40205F13800D1
:1025F00000EB820080F82910E1B2286804F052FC58
:1026000006F5A06000EB4410806800F40070B0F59F
:10261000007F0BD1E1B2286804F044FC4FF4007154
:1026200006F5A06000EB441081603FE206F5A06073
:1026300000EB4410806800F0010000287ED028697B
:10264000C8B104EB440000EBC40105F1380000EB15
:102650008100016906F5A06000EB44100069C0F339
:102660001200091A04EB440000EBC40205F1380023
:1026700000EB82008161012104EB440000EBC40205
:1026800005F1380000EB820080F82910002104EBEE
:10269000440000EBC40205F1380000EB8200416207
:1026A000012106F5A06000EB4410816004EB4400BA
:1026B00000EBC40105F1380000EB8100C07950B196
:1026C00004EB440000EBC40105F1380000EB81008D
:1026D000C07902280AD1E1B2286804F0E3FB102196
:1026E00006F5A06000EB441081603CE004EB440080
:1026F00000EBC40105F1380000EB8100C07903282C
:102700000AD004EB440000EBC40105F1380000EBF3
:102710008100C079012826D106F5A06000EB4410A5
:10272000006840F0005106F5A06000EB4410016025
:10273000012104EB440000EBC40200E058E005F185
:10274000380000EB820080F8281004EB440000EB16
:10275000C40305F1380000EB830090F82820E1B2B3
:102760002846FFF7B1FA286901282CD104EB440070
:1027700000EBC40105F1380000EB8100016904EBB6
:10278000440000EBC40205F1380000EB8200008930
:10279000B1FBF0F000F00100002813D004EB44007E
:1027A00000EBC40105F1380000EB8100007F80F0F0
:1027B000010104EB440000EBC40205F1380000EB1A
:1027C0008200017772E104EB440000EBC40105F1E3
:1027D000380000EB8100007F80F0010104EB440031
:1027E00000EBC40205F1380000EB820001775DE1E7
:1027F00006F5A06000EB4410806800F0020002289B
:102800007BD104EB440000EBC40105F1380000EB80
:10281000810090F8290001280BD1012104EB44002C
:1028200000EBC40205F1380000EB820080F82810AC
:10283000CEE004EB440000EBC40105F1380000EBEE
:10284000810090F8290005280BD1052104EB4400F4
:1028500000EBC40205F1380000EB820080F828107C
:10286000B6E004EB440000EBC40105F1380000EBD6
:10287000810090F8290006280BD004EB440000EBFF
:10288000C40105F1380000EB810090F82900082808
:102890004ED104EB440000EBC40105F1380000EB1D
:1028A0008100406A401C04EB440101EBC40205F1C5
:1028B000380101EB8201486204EB440000EBC401E3
:1028C00005F1380000EB8100406A022816D900218A
:1028D00004EB440000EBC40205F1380000EB820079
:1028E0004162042104EB440000EBC40205F138000E
:1028F00000EB820080F828106AE07EE0022104EB01
:10290000440000EBC40205F1380000EB820080F8BF
:10291000281006F5A06000EB4410076827F08047F8
:1029200047F0004706F5A06000EB441007604FE059
:1029300004EB440000EBC40105F1380000EB81001A
:1029400090F82900032819D1022104EB440000EB80
:10295000C40205F1380000EB820080F8281006F56B
:10296000A06000EB4410076827F0804747F000475D
:1029700006F5A06000EB4410076029E004EB44007A
:1029800000EBC40105F1380000EB810090F829004C
:1029900007281DD104EB440000EBC40105F1380009
:1029A00000EB8100406A401C04EB440101EBC402CF
:1029B00005F1380101EB82014862042104EB440077
:1029C00000EBC40205F1380000EB820080F828100B
:1029D000022106F5A06000EB4410816004EB440086
:1029E00000EBC40305F1380000EB830090F82820C9
:1029F000E1B22846FFF768F958E006F5A06000EB61
:102A00004410806800F0100010284FD104EB4400FF
:102A100000EBC40105F1380000EB8100C079032808
:102A20000ED1002104EB440000EBC40205F1380094
:102A300000EB82004162E1B2286804F033FA2FE033
:102A400004EB440000EBC40105F1380000EB810009
:102A5000C07950B104EB440000EBC40105F138002B
:102A600000EB8100C07902281AD1002104EB440058
:102A700000EBC40205F1380000EB820041622869D6
:102A800070B9032104EB440000EBC40205F13800E7
:102A900000EB820080F82910E1B2286804F002FA05
:102AA000102106F5A06000EB44108160BDE8F087BE
:102AB0002DE9F04705460F46D5F800904E463C46B6
:102AC00006F5A06000EB4410806800F004000428C4
:102AD00015D1042106F5A06000EB441081600621A9
:102AE00004EB440000EBC40205F1380000EB820067
:102AF00080F82910E1B2286804F0D4F909E306F55A
:102B0000A06000EB4410806800F0200020282AD14B
:102B1000202106F5A06000EB4410816004EB440026
:102B200000EBC40105F1380000EB81004079012879
:102B3000E4D1002104EB440000EBC40205F13800AD
:102B400000EB82004171022104EB440000EBC4025F
:102B500005F1380000EB820080F82810E1B2286807
:102B600004F0A0F9D5E206F5A06000EB44108068FF
:102B700000F40070B0F5007F0BD14FF4007106F542
:102B8000A06000EB44108160E1B2286804F08AF98B
:102B9000BFE206F5A06000EB4410806800F0010081
:102BA000B8B3002104EB440000EBC40205F1380087
:102BB00000EB8200416206F5A06000EB44108068E3
:102BC00000F0400040280FD1012104EB440000EB4D
:102BD000C40205F1380000EB82004171402106F586
:102BE000A06000EB44108160012106F5A06000EBBD
:102BF0004410816004EB440000EBC40205F138008E
:102C000000EB820080F82910E1B2286804F04AF94C
:102C10007FE2FFE706F5A06000EB4410806800F05B
:102C20004000402829D1042104EB440000EBC402F9
:102C300005F1380000EB820080F82910012104EB37
:102C4000440000EBC40205F1380000EB8200417142
:102C5000002104EB440000EBC40205F1380000EB56
:102C600082004162E1B2286804F01CF9402106F5B7
:102C7000A06000EB441081604BE206F5A06000EB21
:102C80004410806800F00800082815D1082106F5D6
:102C9000A06000EB44108160052104EB440000EBD0
:102CA000C40205F1380000EB820080F82910E1B27F
:102CB000286804F0F7F82CE206F5A06000EB441059
:102CC000806800F0100010283DD1002104EB440082
:102CD00000EBC40205F1380000EB820041620321E1
:102CE00004EB440000EBC40205F1380000EB820065
:102CF00080F8291004EB440000EBC40105F1380012
:102D000000EB8100407998B904EB440000EBC4016A
:102D100005F1380000EB8100007948B9012104EB8E
:102D2000440000EBC40205F1380000EB8200417161
:102D3000E1B2286804F0B6F8102106F5A06000EBB7
:102D400044108160E5E106F5A06000EB4410806866
:102D500000F08000802865D1286978B9062104EB4D
:102D6000440000EBC40205F1380000EB820080F85B
:102D70002910E1B2286804F095F84CE004EB440017
:102D800000EBC40105F1380000EB8100406A401CF3
:102D900004EB440101EBC40205F1380101EB8201AF
:102DA000486204EB440000EBC40105F1380000EB7D
:102DB0008100406A022823D9002104EB440000EB83
:102DC000C40205F1380000EB82004162042104EBEB
:102DD000440000EBC40205F1380000EB820080F8EB
:102DE000281004EB440000EBC40305F1380000EBAD
:102DF000830090F82820E1B22846FEF765FF0AE03C
:102E0000022104EB440000EBC40205F1380000EBA2
:102E1000820080F82810802106F5A06000EB4410A5
:102E2000816076E106F5A06000EB4410806800F454
:102E30008060B0F5806F16D1082104EB440000EBF0
:102E4000C40205F1380000EB820080F82910E1B2DD
:102E5000286804F027F84FF4806106F5A06000EBC5
:102E60004410816055E106F5A06000EB44108068D5
:102E700000F002000228D4D104EB440000EBC401AE
:102E800005F1380000EB810090F8290001287DD180
:102E9000012104EB440000EBC40205F1380000EB13
:102EA000820080F8281004EB440000EBC40105F117
:102EB000380000EB8100C07902280AD004EB4400FE
:102EC00000EBC40105F1380000EB8100C079032854
:102ED0005AD1286998B904EB440000EBC40105F10C
:102EE000380000EB8100407F80F0010104EB4400DA
:102EF00000EBC40205F1380000EB8200417728693D
:102F0000012841D104EB440000EBC40105F1380075
:102F100000EB81004069002836D004EB440000EB50
:102F2000C40105F1380000EB8100416904EB440065
:102F300000EBC40205F1380000EB82000089084470
:102F4000401E04EB440101EBC40205F1380101EB22
:102F500082010989B0FBF1FA0AF00100002813D0C0
:102F600004EB440000EBC40105F1380000EB8100E4
:102F7000407F80F0010104EB440000EBC40205F146
:102F8000380000EB82004177AFE0FFE704EB44003C
:102F900000EBC40105F1380000EB810090F8290036
:102FA00003280BD1022104EB440000EBC40205F11D
:102FB000380000EB820080F8281096E004EB440013
:102FC00000EBC40105F1380000EB810090F8290006
:102FD00004280BD1022104EB440000EBC40205F1EC
:102FE000380000EB820080F828107EE004EB4400FB
:102FF00000EBC40105F1380000EB810090F82900D6
:1030000005280BD1052104EB440000EBC40205F1B7
:10301000380000EB820080F8281066E004EB4400E2
:1030200000EBC40105F1380000EB810090F82900A5
:1030300006280BD004EB440000EBC40105F1380076
:1030400000EB810090F8290008284ED104EB4400E1
:1030500000EBC40105F1380000EB8100406A401C20
:1030600004EB440101EBC40205F1380101EB8201DC
:10307000486204EB440000EBC40105F1380000EBAA
:103080008100406A022815D9002104EB440000EBBE
:10309000C40205F1380000EB82004162042104EB18
:1030A000440000EBC40205F1380000EB820080F818
:1030B00028101AE0022104EB440000EBC40205F1E1
:1030C000380000EB820080F8281006F5A06000EBC5
:1030D0004410D0F8008028F0804848F0004806F5F9
:1030E000A06000EB4410C0F80080022106F5A0604B
:1030F00000EB4410816004EB440000EBC40305F1D5
:10310000380000EB830090F82820E1B22846FEF753
:10311000DBFDBDE8F0877CB5044626683546D5F86A
:1031200040040190D5F840040090009820F02E0053
:103130000090019800F0020002280AD1019800F0E6
:10314000010010B12046FEF7F1FC009840F00200AB
:103150000090019800F0080008282AD1009840F05B
:1031600008000090019800F0040004281ED1A06916
:1031700002280FD1019800F4C020B0F5802F04D1AF
:103180000221206804F096F90CE00121206804F087
:1031900091F907E0E068012804D14EF6602140F281
:1031A000044041512046FFF73EF802E02046FFF779
:1031B00033F8019800F02000202803D1009840F057
:1031C000200000900098C5F840047CBD2DE9F84F20
:1031D0000546D5F800B05F462868D0F8208008F092
:1031E0000F04C8F343400090C8F30A160098022861
:1031F00006D003287DD005287CD007287BD1A3E00A
:10320000002E79D004EB440000EBC40105F1380036
:1032100000EB8100C06800286ED004EB440000EB96
:10322000C40105F1380000EB81008069811904EBCD
:10323000440000EBC40205F1380000EB8200406955
:10324000814272D8B2B204EB440303EBC40C05F123
:10325000380303EB8C03D968286804F052F904EBB7
:10326000440000EBC40105F1380000EB8100C068A8
:10327000811904EB440000EBC40205F1380000EBB7
:103280008200C16004EB440000EBC40105F138008A
:1032900000EB81008069811904EB440000EBC4025B
:1032A00005F1380000EB8200816107F5A06000EBBA
:1032B00044100069C0F3C94A04EB440000EBC401A8
:1032C00005F1380000EB81000089B04238D1BAF135
:1032D000000F35D007F5A06000EB4410D0F8009047
:1032E00029F0804949F0004907F5A06000EB44103F
:1032F00003E028E025E025E022E0C0F8009004EBA0
:10330000440000EBC40105F1380000EB8100007FB0
:1033100080F0010104EB440000EBC40205F1380029
:1033200000EB820001770BE0FFE7042104EB44008F
:1033300000EBC40205F1380000EB820080F8281091
:1033400003E002E000BF00BF00BF00BFBDE8F88F90
:1033500000BFFEE710B54FF400511048FEF7D0FB58
:103360000F48007830B1012805D0022804D0032886
:1033700011D10DE00FE00EE00A480088012806DDBB
:1033800008480088401E0749088006F029FF02E02F
:10339000FDF716FC00BF00BF10BD00000008024092
:1033A0006F9B00206A9B002010B54FF400510D4820
:1033B000FEF7A6FB0C48007830B1012807D00228A0
:1033C00008D003280CD108E007F0F0F908E007F076
:1033D00095FC05E007F004F902E0FDF7F1FB00BF02
:1033E00000BF10BD000802406F9B002008B50549D2
:1033F00009680143034A11601146096801400091C0
:1034000000BF08BD3038024008B5054909680143CE
:10341000034A1160114609680140009100BF08BDD0
:1034200044380240044A525C825822F00102024BA6
:103430005B5CC250704700001EC80008F0B5024631
:103440000B4600240021186890FAA0F0B0FA80F42E
:103450008AE00125A540186800EA050100297DD011
:103460005868012802D0586802281CD198689568CD
:1034700091FAA1F6B6FA86F677000326BE40B54368
:1034800091FAA1F6B6FA86F6760000FA06F635430A
:10349000956000BFD86855688D4301FB00F6354341
:1034A000556000BF00BF1869D56891FAA1F6B6FA59
:1034B00086F677000326BE40B54391FAA1F6B6FA28
:1034C00086F6760000FA06F63543D56000BF5868E8
:1034D000022831D191FAA1F0B0FA80F0082814D274
:1034E0005869156A91FAA1F6B6FA86F6B7000F2662
:1034F000BE40B54391FAA1F6B6FA86F6B60000FAD8
:1035000006F63543156200BF16E05869556A0E0A83
:1035100096FAA6F6B6FA86F6B7000F26BE40B54371
:103520000E0A96FAA6F6B6FA86F6B60000FA06F67F
:103530003543556200BF00BF5868156891FAA1F67F
:10354000B6FA86F677000326BE40B54391FAA1F697
:10355000B6FA86F6760000FA06F600E003E0354398
:10356000156000BF00BF641C1868E04000287FF4AD
:1035700070AFF0BD024610690840884201D10120B9
:1035800070470020FCE70A04826170470A048261E8
:1035900070478161704730B50246012300BF106853
:1035A000C0F3801038BBD1E9000420438C6820436D
:1035B000CC6820430C6920434C6920438C6920432C
:1035C000CC6920430C6A204314684FF6BF75AC43A6
:1035D00020431060506820F004004C6940EA144019
:1035E0005060086AB0F5005F04D1486A84B2146183
:1035F00000BF00BF0023D06920F40060D0611846EE
:1036000030BD000001490860704700007C9B00202D
:1036100010B502461368234882420BD0B2F1804FA6
:1036200008D02148824205D02048824202D020485A
:10363000824204D123F070004C6840EA0403194828
:10364000824214D0B2F1804F11D0174882420ED07E
:10365000164882420BD01648824208D01548824252
:1036600005D01548824202D01448824204D123F486
:103670004070CC6840EA040313608868D06200BFE1
:103680000888906200BF0748824203D1086910632E
:1036900000BF00BF00BF506940F00100506100BF93
:1036A000002010BD00000140000400400008004060
:1036B000000C00400040014000440140004801402F
:1036C00070B54FF48000FFF791FE04F063F80546F3
:1036D0000022114600F0F8F9044621463B2004F090
:1036E00069F83B2004F048F870BD000070B504464E
:1036F00025460CB9002500E001252A464FF48061DB
:103700000148FEF707FA70BD0000024010B50349FA
:103710000348FDF70FFB0349087010BD819B002093
:10372000A0C80008809B002000B587B0182101A820
:10373000FDF71FF80420FFF759FE8020FFF756FE23
:103740000120FFF753FE0220FFF750FE4FF4005117
:103750002C48FFF71BFF40F20C412B48FFF716FFE8
:103760004FF480612948FFF711FF4FF4005001909A
:1037700001200290002003900490059001A92148A7
:10378000FFF75CFE012001900020029001200590CF
:1037900001A91D48FFF752FE0C2001900120029064
:1037A0000320039000200490059001A91648FFF71C
:1037B00045FE4FF4806001900120029003200390A9
:1037C00000200490059001A91048FFF737FE4FF440
:1037D00070400190002002900220059001A90B4842
:1037E000FFF72CFE4FF48060019001200290002032
:1037F00003900490059001A90348FFF71FFE07B04E
:1038000000BD000000080240000002400004024029
:1038100010B590B0282106A8FCF7ABFF1821684628
:10382000FCF7A7FF4FF48050FFF7EEFD0120FFF7F4
:10383000DDFDA020009002200190032002900020D6
:10384000039004900520059069464548FFF7F6FD72
:10385000444803214A06444B5B5CC35823F0606331
:103860001343414C645C035100BF40223E4B5B5C00
:10387000C35823F0C00313433B4C645C035100BFA7
:103880009202394B5B5CC35823F440331343364CEC
:10389000645C035100BF0022334B5B5CC35823F4CC
:1038A00090731343304C645C035100BF00BF2E4B38
:1038B0005B5CC35823F4007313432B4C645C0351CB
:1038C00000BF0215284B5B5CC35823F4806313438D
:1038D000254C645C035100BF0022234B5B5CC35842
:1038E00023F4C0531343204C645C035100BF00BF5A
:1038F0001D4B5B5CC35823F4C04313431A4C645CF8
:10390000035100BF00BF184A525C0244526922F0C2
:103910000402154B5B5C03445A6100BF0020069013
:103920004FF4827007900020089009900A904FF49D
:1039300000700B9000200C900D900E900A200F90BC
:1039400006A90A48FFF727FE00200849496821F028
:1039500010010143054A516000BF10B010BD0000C6
:10396000000002400064024049C8000800300140E5
:1039700030B585B014216846FCF7FBFE0120FFF747
:1039800043FD03F007FF05460022114600F09CF8B6
:1039900004462146192003F00DFF192003F0ECFE28
:1039A0004FF47A70ADF800000020019042F21070E0
:1039B000029000200390049069461348FFF728FE08
:1039C00000BF1148006820F080000F49086000BF68
:1039D0000020896844F20702914301430A4A91603A
:1039E00000BF20201146496821F070010143516059
:1039F00000BF00BF1046806820F08000114688603C
:103A000000BF05B030BD00000000014010B501222C
:103A10000A490B4801F043FA08B1FDF775F9094965
:103A2000074802F0B9FF08B1FDF76EF9044803F04A
:103A30001CF808B1FDF768F910BD0000816A0008A4
:103A400044AC0020909B002010B5024802F033FEE9
:103A500010BD000044AC002000BFFEE710B50122FD
:103A60000849094805F062F80849087008460078D6
:103A700030B1012106A0FDF7C9FD032010490870EF
:103A800010BD0000819B0020E0A700201000002056
:103A90004552524F5220696E206D6F756E74696E7B
:103AA0006720555342202E2E2E20200A205072656A
:103AB000737320616E7920627574746F6E000000FC
:103AC0006F9B002000BFFEE7F0B503460C4603F0F5
:103AD0000701C1F10700042801D9042001E0C1F168
:103AE00007000646081D072801D2002000E0C81E76
:103AF00005460120B040401E2040A8400127AF40AD
:103B00007F1E17403843F0BD10B50248FEF72FFA6C
:103B100010BD00001CB000207047000010B54FF42D
:103B200000510D48FDF7ECFF0C48007830B101283A
:103B300007D0022808D003280CD108E006F0A6FE22
:103B400008E007F0FDF805E006F05EFD02E0FDF795
:103B500037F800BF00BF10BD000802406F9B002077
:103B60002DE9F0470746884691461D46384603F042
:103B700023FF18B12B480078BDE8F087384603F0E2
:103B80005BFF10B127480078F6E72748C668304643
:103B9000FCF7A2FB04465CB9012124A0FDF736FD29
:103BA000032029490870204804F010FE1120E3E7A3
:103BB000264B324621461C4805F051F91949087038
:103BC00008460078E8B16420FCF786FB82463B4655
:103BD000144802781EA15046FCF7D4FB0121504640
:103BE000FDF714FD0320184908705046FCF7A3FBAD
:103BF0002046FCF7A0FB0C4804F0E8FD09480078DB
:103C0000BAE7A8F1010000FB05412A464846FCF747
:103C100017FD2046FCF78FFB034804F0D7FD014851
:103C20000078A9E71000002014AA00204D656D6FF0
:103C3000727920616C6C6F636174696F6E2066616C
:103C4000696C65640A0A00006F9B00201400002064
:103C50004552524F52212121204E6F2E20256420A3
:103C6000696E2072656164696E672066696C6520A3
:103C70002A25732A200A20507265737320616E7999
:103C800020627574746F6E002DE9FF4FADF5137DE2
:103C90000F4615461C46002638888E9028888D9041
:103CA000B7F8008028888C90C4EB04100001919034
:103CB00091994800FCF710FB8146C4EB0410000109
:103CC000909090994800FCF707FB8246939803F088
:103CD00073FE68B1E34890F800B05046FCF72BFB48
:103CE0004846FCF728FB58460DF5177DBDE8F08FD8
:103CF000939803F0A1FE50B1DA4890F800B0504616
:103D0000FCF719FB4846FCF716FB5846ECE7D6488B
:103D1000C0688F9006A910A806F0F2F9BDF840001F
:103D200044F6425188427DD1BDF826001028FAD1D0
:103D30000898002876DD079890FBF4F0F02804DD61
:103D4000089890FBF4F0F0280EDC079890FBF4F054
:103D5000F02801DC4FF00008089890FBF4F0F02800
:103D60001BDC00208C9018E0089890FBF4F0F038F1
:103D70008C99884205DA089890FBF4F0F03880B20C
:103D80008C90079890FBF4F0F038404505DA0798DE
:103D900090FBF4F0F0381FFA80F8079840008C99F7
:103DA0003144484300EB4800DDF84A1008440590D0
:103DB0008F99059804F08CFEAA490870C4EB04138F
:103DC0001B010798984202DA0798400002E0C4EB12
:103DD000041040010246601EC0EB001009EB4011C8
:103DE000A24BA14805F03BF89E490870012689E0E6
:103DF000079870438F99B1EB400F00D885E0089881
:103E000090FBF4F0B0423EDD079841008C983044BE
:103E1000484300EB4800DDF84A1000FB0410059011
:103E20008F9900E087E0059804F052FE8D490870F4
:103E3000C4EB041109010798884202DA0798400090
:103E400002E0C4EB041040010246884B514686480C
:103E500005F005F8834908700846007838B101215B
:103E600083A0FDF7D3FB0320894908704DE0079834
:103E700080B23988E3B214AACDE900105146484611
:103E800003F020FF09E0002005E04FF6FF7114AABF
:103E900022F81010401CF028F7DB089890FBF4F093
:103EA000F02801DB002014E028880A2190FBF1F0C3
:103EB000089991FBF4F1C1F1F001884205DB089803
:103EC00090FBF4F0C0F1F00003E028880A2190FB99
:103ED000F1F0711EC1F1EF01081A1FFA80FB0120F9
:103EE000F021CDE900010B465A460021029014A8AA
:103EF000FDF7BDFC9198420051464846FCF7A0FBF7
:103F0000701C86B2F02E7FF773AF00BF6420FCF701
:103F1000E3F90490089890FBF4F0C0F1F00B2888C6
:103F20005B4622465BA100900498FCF72BFA0498AC
:103F3000FCF701FA88E0BDF8400044F6425188429F
:103F40007BD1BDF82600102877D10898002874DAB4
:103F5000089840420890002004900798F02805DA5D
:103F60000898F02802DA002500270FE02988089831
:103F7000F038814202DD0898F038288039880798A7
:103F8000F038814202DD0798F03838802988089897
:103F9000401AF03880B204900322079902EB4100E6
:103FA000C11700EB91718910890003914FF0000B4C
:103FB0003DE0DDF84A10039800FB0B118F98814219
:103FC00000D337E0DDF84A2004980BEB0003039898
:103FD00000FB0322388802EB4001234804F01FFC59
:103FE000204908700846007838B101212CA0FDF75F
:103FF0000DFB0320264908701CE01A48007838B1F0
:1040000001211BA0FDF702FB03202149087011E0EC
:104010000120F021CDE900010B465A460021029013
:104020005046FDF724FC0BF101001FFA80FBBBF1A9
:10403000F00FBEDB00BF07E0FFE7012120A0FDF786
:10404000E5FA032012490870074804F0BFFB054851
:10405000007892905046FCF76EF94846FCF76BF9F1
:10406000929841E61000002014AA002014000020BD
:1040700052656164206572726F7221200A2050724D
:1040800065737320616E7920627574746F6E0000C1
:104090006F9B0020492564482564564F25642C00F9
:1040A0005365656B206572726F7221200A20507211
:1040B00065737320616E7920627574746F6E000091
:1040C000506C656173652C20757365206F6E6C791B
:1040D0002031362D6269742063636F6C6F727320B8
:1040E000200A20507265737320616E7920627574A6
:1040F000746F6E0000BF00BF0A498968C1F34001B8
:104100000029F8D00749087300BF00BF00BF054968
:10411000896801F001010029F8D000BF0149097B3D
:104120007047000000300140704700002DE9F04169
:10413000D6B080460E4614460025601EC4B24246E4
:1041400040A109A8FCF71EF909A949A804F03BFE03
:104150003D49087008460078002853D100BF3B490C
:1041600049A804F052FF384908700846007810B991
:104170003648807D00B940E0B5EBC40F3ADB601CE7
:10418000B5EBC00F36DA3148007A00F01000A0B16C
:104190002E4916312EA0FCF73FFB28B12B491631D2
:1041A0002EA0FCF739FB00B9D9E7284B163332A211
:1041B0001E2101A8FCF7FAF806E0244B163321A2D1
:1041C0001E2101A8FCF7F2F8A5EBC40101EB810266
:1041D00002EBC10106EB810001A9FCF7EEF9681CB6
:1041E000A5EBC40101EB810202EBC10106EB8101E9
:1041F00081F83200681CC5B2B1E700BF49A804F0DD
:10420000FBFA00BFA5EBC400C7B213E007EB8701C0
:1042100001EBC70106EB810019A1FCF7CEF90020E4
:1042200007EB870101EBC70106EB810181F8320042
:10423000781CC7B2082FE9DB0348007856B0BDE808
:10424000F08100002573000010000020B09B0020CA
:1042500053595354454D7E31000000005379737417
:10426000656D20566F6C756D6520496E666F726D59
:104270006174696F6E00000025732E44495200007E
:10428000656D707479000000F0B5D3B00646002764
:104290004FF48070FCF720F8054615B9002053B0A4
:1042A000F0BD334614A24FF480712846FCF77EF827
:1042B000294646A804F087FD0446BCB900BF6946FC
:1042C00046A804F0A2FE044614B99DF8160000B9F1
:1042D00008E09DF8080000F010000028EFD1781CDD
:1042E000C7B2ECE700BF46A804F086FA2846FCF700
:1042F00022F83846D3E70000257300002DE9FC4181
:1043000005460E460020FDF739F94FF6FF70FDF720
:10431000FFF84E48FDF702F932464DA16846FCF71A
:1043200031F84C494968898801EB4101C1F17801B4
:1043300088B249A21421FDF727F9464949688988BE
:10434000783188B26A461421FDF71EF9002479E01D
:1043500004EB840000EBC40005EB800090F8330010
:1043600018B94FF4FC60FDF7D3F804EB840000EBC0
:10437000C40005EB800090F8322035A101A8FCF7BD
:1043800001F8344840688088621C504302EB4202C6
:1043900000EB4200193081B201AA2320FDF7F4F8A6
:1043A0002C4A52689288631C5A4303EB430302EB86
:1043B0004302193291B204EB840202EBC40205EB12
:1043C000820292F83220092A05DD224A5268928838
:1043D0005200233203E01F4A52689288233290B27F
:1043E0002E22FCF73DFD1B4B5B689B88671C7B43C3
:1043F00007EB470703EB4703193399B204EB840338
:1044000003EBC40305EB830204EB840303EBC40357
:1044100005EB830393F83230092B06DD0D4B5B6807
:104420009B8803EB4303233304E00A4B5B689B88C0
:104430005B00233398B2FDF7A7F84FF6FF70FDF746
:1044400067F8641C082C83DBBDE8FC8108000020B1
:10445000256400002C00002050616765000000000A
:1044600010B5FDF727FF10BD70B50320504909684E
:1044700021F0070101434E4A116000BF00BF00BF99
:104480004B48006800F007000328F8D18003494931
:10449000096821F440410143464A116000BF00BF52
:1044A0004548006840F480304349086000BF00BFC1
:1044B00000BF41480068C0F340400028F8D04FF4E6
:1044C000800017214FF4B172831140EA010444EADD
:1044D0008214394D2D1D2D68384E35402C43364DF4
:1044E0002D1D2C602C46246824F440341C432C6081
:1044F00000BF430140EA010444EA82141C432D68D2
:104500002F4E35402C432C4D2D1D2C6000BF00BF7D
:10451000281F006840F08070291F086000BF00BF9E
:1045200000BF25480068C0F340600028F8D0002094
:1045300021490831096821F0F00101431E4A08327F
:10454000116000BF90141146096821F4E051014345
:10455000116000BF00201146096821F46041014349
:10456000116000BF02201146096821F003010143D8
:10457000116000BF00BF00BF0F480830006800F0A6
:104580000C000828F7D10F48FFF73CF80F20FDF783
:10459000BBFE08B1FCF7B8FB002007498C31096865
:1045A00021F080710143044A8C32116000BF70BD5C
:1045B000003C024000700040003802400080BFFF15
:1045C0000080BFF044D4BB050348006840F470008D
:1045D000014908607047000088ED00E000BF064810
:1045E000006900F0010030B100BF6FF00100024926
:1045F000086100BF00BF70470000014010B54FF4D4
:1046000000511048FDF77CFA0F48007830B10128BE
:1046100005D0022804D0032811D10DE00FE00EE0F0
:104620000A4800880A2806DA08480088401C07491A
:10463000088005F0D5FD02E0FCF7C2FA00BF00BF1C
:1046400010BD0000000802406F9B00206A9B002004
:1046500010B54FF400510D48FDF752FA0C480078A0
:1046600030B1012807D0022808D003280CD108E077
:1046700006F086FA08E006F065FB05E005F0D0FFDD
:1046800002E0FCF79DFA00BF00BF10BD0008024029
:104690006F9B002070B506460D46304600F029F9A4
:1046A00004464FF6FF70844207D045F4004104F001
:1046B0000F0206F5617040F82210E0B270BD2DE9DE
:1046C000FF4107460C4615461E46002001210223E5
:1046D0000A468DE8320003903146384600F047FD27
:1046E000002004B0BDE8F0812DE9FF4104460D46ED
:1046F00017461E46DDF8288094F81D0308B14FF0D8
:10470000000801200223002231468DE8A101204645
:1047100000F02DFD002004B0BDE8F08170B5044626
:104720000D462946204600F0DEFB002070BD70B526
:1047300004460D46A078012807D1022121740121E9
:10474000617400216182A582E18200221146204627
:1047500000F016F870BD2DE9FF4107460C461546DE
:104760001E460020012103460A468DE832000390D0
:104770003146384600F0FBFC002004B0BDE8F08173
:104780002DE9F04104460E4617460125A078012880
:1047900002D0022819D107E0A660A7810121217665
:1047A0000220A070012511E0204600F01FF9054607
:1047B0000DB1032D04D10120A0700021217603E06A
:1047C000022D01D10120A07000E000BF00BF2846EB
:1047D000BDE8F0812DE9FF4104460D4617461E460F
:1047E000DDF8288094F81D0308B14FF0000801207F
:1047F00000231A4631468DE8A101204600F0B7FC9F
:10480000002004B0BDE8F0817FB506460C46154691
:1048100000200821CDE9000403460246CDE902103C
:104820002946304600F0A3FC002004B070BD10B54E
:1048300004462046FDF76CF810BDF0B506460C4660
:1048400015460022002106F54E771AE002EB8200A1
:1048500000EBC20C07F10A0000EB4C014879A042C2
:1048600001D0FF2C0BD18879A84201D0FF2D06D1B1
:10487000C879984201D0FF2B01D11046F0BD501CE1
:10488000C2B2022AE2D3FF20F8E70246102909D279
:1048900002F5617030F82100C0F30E0302F561707B
:1048A00040F82130002070472DE9F04104460E46C3
:1048B00015461F46DDF81880A078012812D146F071
:1048C0008001217406216174658205F47F40B0F592
:1048D000407F03D140F20941A18201E00021A18281
:1048E000A4F81680424639462046FFF749FFBDE846
:1048F000F0810246002100BF0AE002F5617030F845
:10490000210000F4004008B908467047481CC1B2B5
:104910001029F2D34FF6FF70F7E710B502460B8867
:10492000147823440B801378981810BDF8B5074607
:104930000C4607F11C0633464FF40072002138463E
:104940000094FFF7B1FF05462DB92246314638469F
:1049500001F041FD05462846F8BDF8B504460D4670
:1049600004F58E734FF48072002120460095FFF706
:104970009BFF064636B92A4604F58E7104F22630AE
:1049800001F0D3FD3046F8BD2DE9F84304460E464C
:1049900017461D4646F4407204F58E7300212046EA
:1049A0000095FFF781FF8046B8F1000F05D12A4638
:1049B000394604F58E7001F063FE4046BDE8F88389
:1049C0000146002031B1012906D0022906D0032971
:1049D00008D105E0002007E0022005E0012003E007
:1049E000022001E0022000BF00BF7047F8B5044676
:1049F00001270025207E0C286FD2DFE800F0DD06BD
:104A00000F323E505E7A869AA8BD627904F1100199
:104A10002046FFF7F9FE02212176CEE0617920469B
:104A200000F0E9FA0546012D14D1207C00F0800643
:104A3000E08A38B1802E02D10321217610E00521D1
:104A400021760DE0802E02D10921217608E0072190
:104A5000217605E0042D01D0022D01D10B21217614
:104A6000ABE0D4F8C403E0812379A2892046A16891
:104A7000FFF771FE042121769FE02179204600F0A6
:104A8000BAFA0546012D01D109212176052D01D162
:104A9000032703E0042D01D10B2121768DE00120B5
:104AA00000906379A2892046A168FFF793FED4F8AD
:104AB000C403E081062121767FE06179204600F081
:104AC0009AFA0546012D02D10721217610E0052D25
:104AD00004D10C21217603270AE06DE0022D02D1DA
:104AE0000521217604E0042D02D10B212176022735
:104AF00063E02379002211462046FFF72CFED4F80C
:104B0000C403E0810821217657E02179204600F096
:104B100072FA0546012D03D10D212176002707E009
:104B2000042D02D10B21217602E0052D00D10327AF
:104B300043E0012000906379002211462046FFF7F0
:104B400049FED4F8C403E0810A21217635E0617979
:104B5000204600F050FA0546012D03D100270D2113
:104B6000217608E0022D02D10921217603E0042DEF
:104B700001D10B21217620E0607E401CC1B261761C
:104B8000022904D8012121760120A07013E006211A
:104B90002046D4F8D42390470021617600BF00BF9F
:104BA00061792046FFF771FE21792046FFF76DFEFF
:104BB00000202070022700E000BF00BF3846F8BD8B
:104BC000FEB50446012601256078082874D2DFE886
:104BD00000F0044874ABD2FDEFEE08212046FFF749
:104BE000BCFE054605BB94F82D13A1710120607031
:104BF000A079002294F81D13CDE90012029094F8D8
:104C00001C3321798022204601F0D0FBA0790022BC
:104C100094F81D13CDE90012029094F81C336179C9
:104C2000204601F0C3FB1BE0032D19D100BF00BFDC
:104C300094F81E03401C84F81E0394F81E030328F6
:104C400004D900BF00BF0D20207009E06179204623
:104C5000FFF71BFE21792046FFF717FE002020708A
:104C60000CE112212046FFF778FE054635B900BF5A
:104C700000BF00BF00BF022060701CE0032D1AD1EE
:104C800000BF00BF94F81E03401C84F81E0394F874
:104C90001E03032804D900BF00BF0D2020700AE0C6
:104CA00061792046FFF7F1FD21792046FFF7EDFD00
:104CB000002060702070E1E0DFE00121204601F07B
:104CC00098FE05462DBB0220FFF7B1FD012184F8B7
:104CD0001C1300BF00BF03206070A079002294F86D
:104CE0001D13CDE90012029094F81C332179802223
:104CF000204601F05BFBA079002294F81D13CDE95A
:104D00000012029094F81C336179204601F04EFBAA
:104D100009E0032D07D100BF00BF00BF00BF0D2079
:104D2000207000206070A9E009212046FFF7FEFDF9
:104D3000054615B9042060701CE0032D1AD100BF90
:104D400000BF94F81E03401C84F81E0394F81E0351
:104D5000032804D900BF00BF0D2020700AE061794C
:104D60002046FFF792FD21792046FFF78EFD0020B7
:104D70006070207082E0B4F83A132046FFF7D6FD49
:104D8000054615B9052060701FE0032D1DD100BF39
:104D900000BF94F81E03401C84F81E0394F81E0301
:104DA000032807D900BF00BF0D2020700DE049E0A7
:104DB0002AE00BE061792046FFF767FD2179204664
:104DC000FFF763FD00206070207057E094F8340313
:104DD000A8B194F83413FF2304F58E722046FFF730
:104DE000D3FD054625B900BF00BF062060700AE06C
:104DF000032D08D100BF00BF0620607003E000BF94
:104E000000BF0620607039E094F83503A8B194F82B
:104E10003513FF2304F58E722046FFF7B5FD0546D6
:104E200025B900BF00BF072060700AE0032D08D13C
:104E300000BF00BF0720607003E000BF00BF072075
:104E400060701BE094F8360398B194F83613FF2392
:104E500004F58E722046FFF797FD05461DB900BF89
:104E600000BF002608E0032D06D100BF00BF0026CA
:104E700002E000BF00BF002600E000BF00BF3046D8
:104E8000FEBD10B5044620780B2807D1D4F87C036A
:104E900020B1D4F87C0381692046884710BD70B5E5
:104EA00004460D4616461CB900BF00BF022070BD67
:104EB00084F8CC630020C4F87C03C4F88003204647
:104EC000FBF7F2FE002184F8231384F8201384F802
:104ED000211384F822130DB1C4F8D453204600F0F6
:104EE0009FF80020E3E72DE9F04104460D46002637
:104EF00000272946D4F8D003FCF749FE0646304681
:104F0000FFF75EFD07463846BDE8F0810146012205
:104F100081F82023002281F8212381F82223002018
:104F2000704710B50446012184F82113002184F84C
:104F3000201384F82313204600F00AF92179204633
:104F4000FFF7A3FC61792046FFF79FFC002010BD0E
:104F500070B505460C4695F8CC03012802D12046D1
:104F6000FEF7C4FBC820FCF7D3FC002070BD70B571
:104F700004460D462946D4F8D003FCF7FDFD70BD6C
:104F800070B504460125D4F8D003FCF7E3FD20B149
:104F9000012804D0022806D103E0002505E0012500
:104FA00003E0022501E0012500BF00BF284670BDD7
:104FB00030B5034600BFD3F8D02301EB410404EB26
:104FC000C10502F1380404EB8504E4784CB101EB2F
:104FD000410404EBC10502F1380404EB8504207F91
:104FE00008E001EB410404EBC10502F1380404EBD5
:104FF0008504607F30BD70B504460D462946D4F85F
:10500000D003FCF7ADFD70BD10B50446D4F8C40361
:10501000401CC4F8C4032046FFF733FF10BD000056
:1050200070B5044694F8CC03012820D11148C0F88B
:105030000043C4F8D0034FF0A0400E490860082197
:105040000C4881600121C160002101610221816160
:105050000021C161FDF747F808B1FBF755FE05488F
:10506000FCF772FD05462946204600F03CF800207A
:1050700070BD00001CB000202DE9FF5F04460D4606
:1050800016461F46DDE90F9ADDF838804FF0000B19
:10509000002003908DE800073B4632462946D4F8AD
:1050A000D003FCF78EFD83465846FFF789FC03903A
:1050B000039804B0BDE8F09F002280F823237047D6
:1050C000012280F82323704770B50446002500268E
:1050D000D4F8D003FDF7AEF805462846FFF770FC7C
:1050E0000646304670BDC0F8C413704730B504465C
:1050F000D4F8D03301EB410000EBC10503F13800D7
:1051000000EB8500C07848B101EB410000EBC10520
:1051100003F1380000EB8500027708E001EB410065
:1051200000EBC10503F1380000EB85004277002059
:1051300030BD70B5044600250026D4F8D003FDF735
:1051400086F805462846FFF73BFC0646304670BD0C
:1051500070B5044600250026D4F8D003FDF792F878
:1051600005462846FFF72CFC0646304670BD2DE963
:10517000F04F87B004460D4616461F46DDE912ABD8
:10518000DDE910890020069005908DE8000F3B4670
:1051900032462946D4F8D003FCF797FD06900698CE
:1051A000FFF70EFC0590059807B0BDE8F08F2DE9DC
:1051B000F0410446884615460227D4F87C03C669A8
:1051C00015B1012D0CD105E0F1792046FFF7AFFABA
:1051D000074606E0B1792046FFF7A9FA074600E046
:1051E00000BF00BF3846BDE8F08100000246D2F89B
:1051F0007C03C169054B4B65054B8B65012381F829
:10520000503081F85230002070470000555342431F
:10521000504030202DE9F84F074688464FF00109ED
:105220000126B2460025D7F87C03C469AB4694F842
:1052300050000C2874D2DFE800F07306153C477468
:1052400081B5C0DFF2F084F86180022184F850104B
:105250000120009063791F2204F154013846FFF7C2
:1052600043FA0AE161793846FFF7C5FE0546012D8C
:1052700013D1E06D68B194F8600000F080008028E0
:1052800003D1032184F8501012E0052184F8501056
:105290000EE0072184F850100AE0022D03D101210D
:1052A00084F8501004E0052D02D10A2184F8501032
:1052B000E3E0237962898C2001593846FFF7FFF932
:1052C000042184F85010D8E021793846FFF793FE86
:1052D0000546012D1ED16189E06D88420AD98C20D6
:1052E0000059618901448C2001516189E06D411AA6
:1052F000E16501E00021E165E06D38B12379628963
:105300008C2001593846FFF7DAF908E0072184F8C4
:10531000501004E0052D02D1092184F85010ACE0B2
:10532000AAE001200090637922898C200159384637
:10533000FFF7DAF9062184F850109EE061793846CB
:10534000FFF759FE0546012D20D12189E06D8842E5
:105350000AD98C200059218901448C2001512189CE
:10536000E06D411AE16501E00021E165E06D48B1C1
:1053700001200090637922898C2001593846FFF77B
:10538000B3F90EE0072184F850100AE0022D03D192
:10539000052184F8501004E0052D02D10A2184F87B
:1053A00050106AE023790D2204F178013846FFF7A6
:1053B00086F9082184F850105FE021793846FFF71C
:1053C0001AFE0546012D11D1012184F8501084F8F0
:1053D0005210384600F0C6F88246BAF1000F02D1EA
:1053E0004FF0000907E04FF0020904E0052D02D15B
:1053F000092184F8501040E0002241463846FFF76A
:10540000D6FE06461EB9072184F8501004E0042E8B
:1054100002D10B2184F850102FE022E0FFE7012297
:1054200041463846FFF7C3FE0646A6B961793846BD
:10543000FFF7BEFD8346CBF10100C2B26179384669
:10544000FFF754FE217900223846FFF74FFE09216D
:1054500084F8501004E0042E02D10B2184F850107F
:105460000BE0384600F01FF88146B9F1000F02D179
:10547000012184F8501000E000BF00BF4846BDE89D
:10548000F88F70B504460D46A1212174FE21617488
:1054900000216182A1820121E18201222946204668
:1054A000FFF76EF970BD10B5044621212174FF216C
:1054B000617400216182A182E182002211462046AE
:1054C000FFF75EF910BD2DE9F0410746D7F87C03E0
:1054D000C4690126A07B20B1022803D003283BD158
:1054E00032E000BF21463846FFF7CBFF0646032EC9
:1054F00002D10020207000262EBB2078022801D97E
:10550000022001E02078401C207000BF00BF002571
:1055100016E0022105EB850000EBC50204F19000C6
:1055200000EB82008170002105EB850000EBC502D5
:1055300004F1900000EB820080F83110681CC5B2C5
:105540002078A842E5DC08E000213846FFF7EFF8B4
:1055500008B9E07BA07300E000BF00BF3046BDE8A3
:10556000F081000070B50546D5F87C03C4690126BA
:1055700021792846FFF7FBFC0D2801D0022619E00F
:105580000D49A06F884214D1E16FA06D814211D105
:1055900094F8840008B900260CE094F884000128EF
:1055A00001D1012606E094F88400022802D10226E7
:1055B00000E00226304670BD555342532DE9F041BC
:1055C00004460D461646D4F87C03C76920780B289C
:1055D0000ED105EB850000EBC50207F1900000EB52
:1055E000820134223046FBF770F80020BDE8F081DC
:1055F0000220FBE770B50546D5F87C03C4696079E5
:1056000048B161792846FFF789F861792846FFF7A4
:105610003CF900206071207948B121792846FFF7D4
:105620007DF821792846FFF730F900202071D5F860
:105630007C03C06940B1D5F87C13C869FAF77BFEDA
:105640000020D5F87C13C861002070BDFEB505466A
:10565000D5F87C030179502306222846FFF7EDF8A0
:105660000646FF2E01D0022E03D300BF00BF02204A
:10567000FEBD3146284601F0A8F907460FB10220C9
:10568000F6E74FF48070FAF727FED5F87C13C8616F
:10569000D5F87C03C4691CB900BF00BF0220E7E74E
:1056A0004FF480712046FBF764F806EB860000EBB0
:1056B000C60105F2423000EB4100007B00F08000A3
:1056C000A0B106EB860000EBC60105F2423000EB0C
:1056D0004100007BE07106EB860000EBC60105F29D
:1056E000423000EB4100C089608113E006EB860088
:1056F00000EBC60105F2423000EB4100007BA071D7
:1057000006EB860000EBC60105F2423000EB4100DB
:10571000C089208106EB860000EBC60105F242300D
:1057200000EB4100007D00F08000A0B106EB860098
:1057300000EBC60105F2423000EB4100007DE07154
:1057400006EB860000EBC60105F2423000EB41009B
:10575000C08A608113E006EB860000EBC60105F20B
:10576000423000EB4100007DA07106EB860000EBAB
:10577000C60105F2423000EB4100C08A20810020C2
:1057800020736073A073A1792846FEF783FF6071D0
:10579000E1792846FEF77EFF20712846FFF726FDB7
:1057A000A07980B1208970B12089022295F81D135B
:1057B000CDE90012029095F81C33A2796179284650
:1057C00000F0F4FD01E0032052E7E07980B1608948
:1057D00070B16089022295F81D13CDE90012029084
:1057E00095F81C33E2792179284600F0DFFD01E0CD
:1057F00003203DE7217900222846FFF777FC6179F5
:1058000000222846FFF772FC002031E72DE9F04125
:105810000646D6F87C03C4694FF00108012501272C
:10582000207B10B101287DD149E2B4F8F80021783D
:10583000884278DA0121B4F8F80000EB800202EB2C
:10584000C00204F1900000EB82004170B4F8F8004F
:1058500000EB800101EBC00104F1900010F8210081
:1058600009287CD2DFE800F0057B66FD17FC7B7B16
:10587000FB0000BF00BF0421B4F8F80000EB800279
:1058800002EBC00204F1900000F82210D6F8C40325
:10589000C4F8FC0007E2B4F8F80000EB800303EB67
:1058A000C00304F1900000EB830000F10F0294F8B4
:1058B000F810304600F00FFB054685B900BF00BF69
:1058C00000BF00BF00BF00BF0221B4F8F80000EB2A
:1058D000800202EBC00204F1900000F82210022DB9
:1058E0000BD10521B4F8F80000EB800202EBC002F6
:1058F00004F1900000F822101BE0042D19D10121C1
:10590000B4F8F80000EB800202EBC00204F1900052
:1059100000F822100221B4F8F80000EB800202EB3C
:10592000C00201E0CEE1BFE104F1900000EB820093
:105930004170B8E194F8F810304600F04CFC07468E
:10594000F7BBB4F8F80000EB800101EBC00104F1F3
:10595000900000EB8100807880B1012100E0A1E19E
:10596000B4F8F80000EB800202EBC00204F19000F2
:1059700000EB820080F8311000BF0CE00021B4F889
:10598000F80000EB800202EBC00204F1900000EB93
:10599000820080F831100321B4F8F80000EB800297
:1059A00002EBC00204F1900000F822100021B4F8CC
:1059B000F80000EB800202EBC00204F1900000E06E
:1059C0000DE000EB82004170B4F8F80000EB8002BB
:1059D00002EBC00204F1900000EB82008170022F04
:1059E00050D1B4F8F80000EB800101EBC00104F1E4
:1059F000900000EB8100807802280ED00121B4F8DD
:105A0000F80000EB800202EBC00204F1900000EB12
:105A1000820080F8311000BF0CE00021B4F8F800DB
:105A200000EB800202EBC00204F1900000EB820068
:105A300080F831100521B4F8F80000EB800202EB89
:105A4000C00204F1900000F822100121B4F8F8001F
:105A500000EB800202EBC00204F1900002E01BE1C7
:105A600096E029E000EB820041700221B4F8F800D2
:105A700000EB800202EBC00204F1900000EB820018
:105A8000817018E0042F16D10121B4F8F80000EB62
:105A9000800202EBC00204F1900000F82210022103
:105AA000B4F8F80000EB800202EBC00204F19000B1
:105AB00000EB82004170F6E0B4F8F80000EB8003E0
:105AC00003EBC00304F1900000EB8300021D94F887
:105AD000F810304600F0D2FA054685BBB4F8F8005D
