:020000040800F2
:10000000A8C90020990200084539000821320008DB
:10001000CD380008C10B0008C171000800000000C5
:10002000000000000000000000000000BD3B0008D0
:10003000A70C00080000000099390008F93E0008EC
:10004000B3020008B3020008B3020008B3020008BC
:10005000B3020008B3020008B3020008B3020008AC
:10006000B3020008B3020008B3020008B30200089C
:10007000B3020008B3020008B3020008B30200088C
:10008000B3020008B3020008B30200080000000039
:10009000000000000000000000000000B3020008A3
:1000A000B302000875400008B3020008B30200085C
:1000B000B3020008B3020008B3020008B30200084C
:1000C000B3020008B3020008B3020008B30200083C
:1000D000B3020008B3020008B302000800000000E9
:1000E000B3020008B3020008B302000800000000D9
:1000F000000000000000000000000000B302000843
:1001000000000000B3020008B3020008B3020008B8
:1001100000000000000000000000000000000000DF
:10012000B3020008B3020008B3020008C50B0008C0
:10013000B302000800000000000000000000000002
:1001400000000000000000000000000089390008E5
:10015000B3020008B3020008B3020008B3020008AB
:10016000B3020008B3020008000000000000000015
:10017000000000000000000000000000000000007F
:1001800000000000B30200080000000000000000B2
:10019000B3020008B302000800F002F800F06CF8A7
:1001A0000AA090E8000C82448344AAF10107DA45D2
:1001B00001D100F061F8AFF2090EBAE80F0013F0B8
:1001C000010F18BFFB1A43F001031847B8BC000029
:1001D000D8BC000010F8013B0A4413F0030408BF28
:1001E00010F8014B1D1108BF10F8015B641E05D00B
:1001F00010F8016B641E01F8016BF9D1002D15D0C8
:1002000010F8014B03F00C030C2BA1EB04040ABF04
:1002100010F8013BA4EB8314A4EB032405F10103C4
:1002200014F8016B5B1E01F8016BF9D5914238BFE0
:1002300010F8013BD1D3704700230024002500268D
:10024000103A28BF78C1FBD8520728BF30C148BF39
:100250000B607047642900F0ED80732900F003847F
:10026000002070471FB509F007FE9DE8030000F06D
:1002700033FB1FBD10B510BD00F020FC1146FFF789
:10028000F1FF08F01BFE00F03EFC03B4FFF7F2FFA5
:1002900003BC00F06FFC0000094880470948004794
:1002A000FEE7FEE7FEE7FEE7FEE7FEE7FEE7FEE726
:1002B000FEE7FEE704480549054A064B7047000083
:1002C0006140000899010008A8B40020A8C90020D6
:1002D000A8B90020A8B9002070B5064600F0E0FAE1
:1002E000056806F10B0020F00704B4429CBF002013
:1002F00070BD2B466A68BAB11068A04210D304F1F1
:10030000080188423CBF5068586007D351681019F3
:1003100041601168091B016058601460101D70BDB8
:1003200013465268002AE7D12146284600F0C0FA59
:100330000028DED170BD70B50446051F00F0B0FA8C
:100340000068002C14BF446870BD002C18BFAC427C
:100350003CBF20466468F8D301680A18AA4218BF57
:10036000456003D12A680546114401602868411997
:10037000A1421CBF6C6070BD61686960216808445F
:10038000286070BD0FB41CB5074B06AA7B446946B4
:100390000090059800F035FB0020694600F044FB12
:1003A0001CBC5DF814FB0000990600000FB41CB5DE
:1003B0000C0007AA009001D02044401E074B7B444C
:1003C00069460190069800F01CFB002C03D069469A
:1003D000002000F029FB1CBC5DF814FB7106000036
:1003E00070B50C460546012A05D02878800600D550
:1003F000EA69002302E0012305E05B1C934202D27C
:10040000E05C0028F9D1A869E618C01AA861286A3A
:10041000184428622846AFF3008004E0D5E90121A2
:1004200014F8010B9047B442F8D32846AFF300808C
:1004300070BD00002DE9F0410646002410687529C2
:10044000314616A510D0AFF30080002802DA4042F2
:1004500013A507E031688A0701D512A502E0490714
:1004600004D511A5012401E0AFF3008000210A2288
:1004700006F1240709E0B0FBF2FCB0FBF2F302FB4B
:100480001C00303078541846491C0028F3D123460C
:100490002A463046BDE8F04100F054BA00000000A2
:1004A0002D0000002B000000200000002DE9F04787
:1004B0004FF0000A89460446C0F820A02046E168B3
:1004C0008847002876D0252806D0D4E90121904716
:1004D000206A401C2062F1E7E16820460025884739
:1004E000C4F81CA006460027C4F818A02A2E09D07C
:1004F000304606F0ADFE38B304EB8708303EC8F84E
:10050000186019E059F8041B204604EB870291613A
:10051000E1688847012F064618D1E069002820DAF3
:1005200025F020051DE0D8F8180000EB800006EB50
:1005300040003038C8F818002046E1688847064671
:1005400006F086FE0028EED1012F0AD02E2E08D10B
:100550002046E16888477F1C0646022F45F02005AB
:10056000C4DBA069002803DA404245F00105A06120
:10057000E80701D025F01005B6B1A6F14100192811
:1005800002D8203645F400654A46314620462560AB
:100590004D46FFF75FFE58B1012806D0ED1D25F04E
:1005A000070000F1080989E704E005F1040985E77F
:1005B00030468AE7206ABDE8F08740EA0103024638
:1005C00030B59B0710D14FF0013400E008C208C9D4
:1005D0001D1B9D4315EAC41FF8D013F0FF0102F85C
:1005E000011B0DD01B0AF8E711F8013B002B02F8A4
:1005F000013B05D011F8013B002B02F8013BF3D180
:1006000030BD10B5431C02E010F8011B71B1810729
:10061000FAD14FF0013202C88C1A8C4314EAC2118D
:10062000F9D0C01A0A0603D0C01E10BDC01A10BDF2
:100630000A0401D0801E10BD0902FCD0401E10BD6E
:10064000032A40F2308010F0030C00F0158011F8FE
:10065000013BBCF1020F624498BF11F801CB00F8D6
:10066000013B38BF11F8013BA2F1040298BF00F82A
:1006700001CB38BF00F8013B11F0030300F02580E7
:10068000083AC0F0088051F8043B083A51F804CB0E
:10069000A0E80810F5E7121D5CBF51F8043B40F8D4
:1006A000043BAFF30080D20724BF11F8013B11F8DF
:1006B00001CB48BF11F8012B24BF00F8013B00F823
:1006C00001CB48BF00F8012B704710B5203AC0F0AD
:1006D0000B80B1E81850203AA0E81850B1E8185043
:1006E000A0E81850BFF4F5AF5FEA027C24BFB1E880
:1006F0001850A0E8185044BF18C918C0BDE81040F1
:100700005FEA827C24BF51F8043B40F8043B08BFF9
:100710007047D20728BF31F8023B48BF11F8012BC0
:1007200028BF20F8023B48BF00F8012B70474FF06C
:1007300000020429C0F0128010F0030C00F01B80AE
:10074000CCF1040CBCF1020F18BF00F8012BA8BFBC
:1007500020F8022BA1EB0C0100F00DB85FEAC17C80
:1007600024BF00F8012B00F8012B48BF00F8012B33
:1007700070474FF0000200B5134694469646203964
:1007800022BFA0E80C50A0E80C50B1F12001BFF44A
:10079000F7AF090728BFA0E80C5048BF0CC05DF8B0
:1007A00004EB890028BF40F8042B08BF704748BFFE
:1007B00020F8022B11F0804F18BF00F8012B704772
:1007C00010B5044610F0030F08BF11F0030F40F0FE
:1007D00015804FF0013E121FC0F20E8051F8043B0D
:1007E000A3EB0E0C2CEA030C1CEACE1C08BF40F84D
:1007F000043BF0D0A1F1040102F10402521E08DB17
:1008000011F8013B002B00F8013BF7D11146FFF72F
:100810008EFF204610BD00004FF0013C50F8042B25
:1008200051F8043B9A4221D1A2EB0C03934313EA03
:10083000CC1317D150F8042B51F8043B9A4215D130
:10084000A2EB0C03934313EACC130BD150F8042B07
:1008500051F8043B9A4209D1A2EB0C03934313EAEB
:10086000CC13DBD04FF00000704700BFD01A01BAA4
:10087000B1FA81F101F0180122FA01F0CB40C1F187
:100880002001DBB2C0B2C01A2CFA01F3D11A914395
:1008900011EAC311E6D170477047704770470000F6
:1008A0000048704750B40020704770477047704749
:1008B00038B504460A4600206946AFF30080002898
:1008C00008BF38BD02460099204600F0D5F8012047
:1008D00038BD012000F0EAB8F8B5AFF30080054656
:1008E00000200C46102000BF0646A819A0420DD9D2
:1008F000324669460020AFF30080070008BF00F0D1
:10090000D5F80098A04218BF0546C419FFF7C8FFE4
:1009100005600746F01D20F007004619284600F044
:100920000AF8B44208BFF8BDA21B31463868BDE8DA
:10093000F84000F0A1B800210160C0E90110704743
:10094000102070472DE9F0470D469946924604461F
:1009500000F124080168880604D5E06921F010013F
:10096000216000E00120A84201DD471B00E00027D4
:10097000A1697A1902EB0900081AA0612078C00663
:1009800002D42046AFF30080002608E0D4E901211C
:100990001AF806009047206A401C761C20624E45DB
:1009A000F4DB2078C0060AD52046AFF3008006E0CD
:1009B000D4E9012130209047206A401C2062381E73
:1009C000A7F10107F4DC07E0D4E9012118F80500DC
:1009D0009047206A401C2062281EA5F10105F3DC27
:1009E0002046AFF300802078000602D50220BDE843
:1009F000F0870120FBE7000001694A1C02610878CA
:100A0000704700B58FB0CDE901310021059105494E
:100A10007944CDE9031011466846FFF747FD0FB052
:100A200000BD0000E5FFFFFF0A6802F8010B0A6045
:100A30007047D1E900239A4202D2531C0B60107018
:100A4000704710B5436913B1AFF3008001E0FFF7C1
:100A5000C7FC012010BD127800F124010A700022A9
:100A60004A700122EDE711684FF0FF32E9E700001C
:100A70000048704748B40020034640688C46002870
:100A800018BF88423CBF03464068F8D31868184432
:100A9000884207D00CF1030020F00700001D411A26
:100AA000521A0146081D0A60FFF745BC10B500F058
:100AB00039F8BDE8104000F02FB870477546FFF7D1
:100AC000D7FFAE4605006946534620F0070085462D
:100AD00018B020B5FFF7EEFBBDE820404FF0000650
:100AE0004FF000074FF000084FF0000B21F0070116
:100AF000AC46ACE8C009ACE8C009ACE8C009ACE859
:100B0000C0098D46704710B50446AFF300802046FB
:100B1000BDE81040FFF7B9BB002801D000F02AB8AB
:100B20007047000010B5012805D0002103A000F097
:100B300027F8012010BD09A1F8E7000053494752EA
:100B4000544D454D3A204F7574206F66206865619D
:100B500070206D656D6F7279000000003A20486565
:100B60006170206D656D6F727920636F7272757040
:100B70007465640001491820ABBEFEE72600020040
:100B800070B505460C460A2000E06D1C00F011F817
:100B900035B128780028F8D102E0641C00F009F88B
:100BA00014B120780028F8D1BDE870400A20AFF3D6
:100BB000008008B569468DF800000320ABBE08BD73
:100BC00000BFFEE710B500BF0E480068C0F3C0606C
:100BD00048B100BF4FF000600A49886000BF0120A3
:100BE000094908700DE000BF06480068C0F3406086
:100BF00038B100BF4FF000700249886000BF00F0BC
:100C000053F810BD006402405899002010B54FF40D
:100C100000510B4800F0DCFE0A48007820B10128A2
:100C200005D0022809D105E008F000FE05E009F032
:100C3000E7F802E008F0F5FD00BF00BF10BD0000BE
:100C4000000802404B9E00200146002200BF05E044
:100C5000002301F5617040F82230521C102AF7D3AE
:100C6000002204E0002301F58E708354521CB2F57B
:100C7000007FF7D3002008704870012088700020A2
:100C8000C1F8C40301230B7640238B7100234B76FC
:100C900081F81C33012381F81D33002381F81F33B1
:100CA00081F81E337047704772B610E04FF4005061
:100CB0000749886100BF4FF4FC6000F03FF84FF433
:100CC0000051034802F09CFB1F2000F037F8EDE7CD
:100CD0000008024030B504460D4600222946204651
:100CE00000F002F830BD0000F0B5034601250024F5
:100CF0001148407A01281CDA00200F4E767A0E4FF8
:100D0000B8553846467A001D40F82630001F467A0E
:100D1000083082553E46707A461C7E72044604F1C5
:100D2000300008703A2048702F2088700020C8706A
:100D300000252846F0BD00003CB4002038B504462C
:100D4000F0231A4600210846009400F001F838BD4F
:100D50002DE9FF4F87B0824616461F461498000AB9
:100D600005901498C0B20490DDE9040101EB002065
:100D700080B20390A6EB0A000899791A48434FEA1B
:100D800040084FF48074B8FBF4F004FB1080A8EB2B
:100D90000000B0FBF4F00290B8FBF4F004FB108B01
:100DA0000694069C6000FFF797FA8146002503E051
:100DB000039829F815006D1CA542F9D3781EC3B21B
:100DC000701EC2B25046089900F07EFBCDF8049028
:100DD000002504E0A1B2019800F04CFC6D1C0298C3
:100DE0008542F7D3BBF1000F04D01FFA8BF10198B5
:100DF00000F040FC4846FFF79EFA0BB0BDE8F08FCC
:100E00002DE9FE4F80460F4692464FF0000900261E
:100E1000002000903A484068B0F806B03848406872
:100E20008588E81DC11700EB5171C910C5EBC101E0
:100E3000C9B20291AAF12001314A5268D2885143C5
:100E40002F4A52689288D01DC21700EB5272D210FE
:100E50002B4B5B681B6801FB0231019100BF4AE02C
:100E6000E81DC11700EB5171CA10019902FB09146A
:100E7000C11700EB5171C910012904D0022905D016
:100E8000032909D109E0207800900FE060782178EB
:100E900040EA0120009009E000BF2078000461785A
:100EA00040EA0120A1780843009000BF00BF00265F
:100EB0001BE0A91B02980844401E012101FA00F022
:100EC0000099084040B10E4B1A88F9B208EB0603AE
:100ED000D8B200F017F807E0094B5A88F9B208EBCE
:100EE0000603D8B200F00EF8761CAE42E1D3781CAF
:100EF00087B209F10109D945B2D3BDE8FE8F0000E0
:100F00002C0000202DE9FE4F81468A461446200A17
:100F1000019004F0FF0B019800EB0B2080B20090D1
:100F200004260296029E7000FFF7D6F907460025B8
:100F300003E0009827F815006D1CB542F9D30AF1BB
:100F40000100C3B209F10100C2B25146484600F0A7
:100F5000BBFAB8460821404600F08CFB3846FFF744
:100F6000EAF9BDE8FE8F000010B54FF48061FE483D
:100F700002F049FA0821FD4802F03FFA0821FB4837
:100F800002F041FAEF2000F0FBFBEB2000F0F8FB51
:100F9000142000F00DFCFE2000F0F2FBEF2000F02A
:100FA000EFFBEB2000F0ECFB142000F001FC8420B0
:100FB00000F0E6FB402000F0FBFB852000F0E0FBAA
:100FC000FF2000F0F5FB862000F0DAFBFF2000F0A8
:100FD000EFFB872000F0D4FBFF2000F0E9FB882026
:100FE00000F0CEFB0A2000F0E3FB892000F0C8FBF4
:100FF000212000F0DDFB8A2000F0C2FB002000F081
:10100000D7FB8B2000F0BCFB802000F0D1FB8C20B4
:1010100000F0B6FB012000F0CBFB8D2000F0B0FB10
:10102000012000F0C5FB8E2000F0AAFBFF2000F09D
:10103000BFFB8F2000F0A4FBFF2000F0B9FBB6201F
:1010400000F09EFB002000F0B3FB002000F0B0FB9E
:10105000362000F095FB282000F0AAFB3A2000F093
:101060008FFB052000F0A4FB902000F089FB0820F6
:1010700000F09EFB082000F09BFB082000F098FB8E
:10108000082000F095FBBD2000F07AFB062000F060
:101090008FFBBC2000F074FB002000F089FBFF20D8
:1010A00000F06EFB602000F083FB012000F080FB6D
:1010B000042000F07DFBC32000F062FB132000F051
:1010C00077FBC42000F05CFB132000F071FBC9200B
:1010D00000F056FB222000F06BFBBE2000F050FB1E
:1010E000112000F065FBE12000F04AFB102000F029
:1010F0005FFB0E2000F05CFBDF2000F041FB2120B5
:1011000000F056FB0C2000F053FB022000F050FBD7
:10111000F02000F035FB452000F04AFB092000F0EC
:1011200047FB082000F044FB082000F041FB26208C
:1011300000F03EFB2A2000F03BFBF12000F020FBFA
:10114000432000F035FB702000F032FB722000F0ED
:101150002FFB362000F02CFB372000F029FB6F20FE
:1011600000F026FBF22000F00BFB452000F020FBF6
:10117000092000F01DFB082000F01AFB082000F0F9
:1011800017FB262000F014FB2A2000F011FBF320AF
:1011900000F0F6FA432000F00BFB702000F008FB93
:1011A000722000F005FB362000F002FB372000F033
:1011B000FFFA6F2000F0FCFAED2000F0E1FA1B20AE
:1011C00000F0F6FA0B2000F0F3FAAE2000F0D8FAA7
:1011D000772000F0EDFACD2000F0D2FA632000F085
:1011E000E7FA702000F0CCFA072000F0E1FA0720BF
:1011F00000F0DEFA042000F0DBFA0E2000F0D8FA4E
:101200000F2000F0D5FA092000F0D2FA072000F0F4
:10121000CFFA082000F0CCFA032000F0C9FAE82049
:1012200000F0AEFA342000F0C3FA622000F0A8FA11
:10123000182000F0BDFA0D2000F0BAFA712000F07D
:10124000B7FAED2000F0B4FA702000F0B1FA702087
:1012500000F0AEFA182000F0ABFA0F2000F0A8FA68
:10126000712000F0A5FAEF2000F0A2FA702000F043
:101270009FFA702000F09CFA632000F081FA182099
:1012800000F096FA112000F093FA712000F090FA25
:10129000F12000F08DFA702000F08AFA702000F042
:1012A00087FA182000F084FA132000F081FA7120E8
:1012B00000F07EFAF32000F07BFA702000F078FA5C
:1012C000702000F075FA642000F05AFA282000F02F
:1012D0006FFA292000F06CFAF12000F069FA012081
:1012E00000F066FAF12000F063FA002000F060FAE6
:1012F000072000F05DFA662000F042FA3C2000F082
:1013000057FA002000F054FACD2000F051FA67207F
:1013100000F04EFA452000F04BFA452000F048FA64
:10132000102000F045FA002000F042FA002000F002
:101330003FFA002000F03CFA672000F021FA00207C
:1013400000F036FA3C2000F033FA002000F030FACA
:10135000002000F02DFA002000F02AFA012000F011
:1013600027FA542004E0000000040240000002407C
:1013700000F01EFA102000F01BFA322000F018FADC
:10138000982000F015FA742000F0FAF9102000F00F
:101390000FFA852000F00CFA802000F009FA0020F6
:1013A00000F006FA002000F003FA4E2000F000FAE8
:1013B000002000F0FDF9982000F0E2F93E2000F056
:1013C000F7F9072000F0F4F9352000F0D9F92120D1
:1013D00000F0D6F9112000F0D3F9292000F0D0F95F
:1013E00010BD000070B505460E46144600202E497B
:1013F000087054E02C480078082844D2DFE800F058
:10140000040C141C243B332B4FF4784000F086F876
:1014100001202549087036E04FF6205000F07EF894
:101420000220214908702EE04FF6C06000F076F8E7
:1014300003201D49087026E04FF4FC6000F06EF8B0
:101440000420194908701EE01F2000F067F80720EB
:101450001549087017E044F6100000F05FF8062008
:10146000114908700FE048F2100000F057F805200D
:101470000D49087007E04FF67F1000F04FF800208C
:101480000949087000BF00BF227831462846FFF79F
:10149000B7FC064840688088284485B2641C2078E0
:1014A0000028A7D170BD0000350000202C000020CE
:1014B00001494880704700002C0000200149486025
:1014C000704700002C0000202DE9F04104460D4635
:1014D00016461F462A2000F053F9002000F068F954
:1014E000E0B200F065F9002000F062F9F0B200F01F
:1014F0005FF92B2000F044F9002000F059F9E8B220
:1015000000F056F9002000F053F9F8B200F050F95D
:101510002C2000F035F9BDE8F08100000149088079
:10152000704700002C0000202DE9F0470546884652
:1015300014462046FFF765F800F0FF09EFB219489E
:101540004068808809F102014843C5F1F0018842F2
:1015500017DD00260AE0A25D41463846FFF750FC41
:101560001048406800793844C7B2761CC5F1F000D5
:101570000C494968898890FBF1F0801EB042EAD19D
:101580000EE00AE0227841462846FFF739FC05487C
:1015900040688088284485B2641C20780028F1D1F6
:1015A000BDE8F0872C0000202DE9F05F04460F46CF
:1015B0004FF6FF70FFF7C2FB4FF6FF70FFF778FFA3
:1015C0002A48FFF77BFF0020FFF7A8FF23262325EB
:1015D000C6F1F000401B26494968898890FBF1F06C
:1015E00000F0FF08C6F1F000401B21494968C98896
:1015F00090FBF1F0401C00F0FF0A18FB0AF000F02D
:10160000FF0B781E0BFB00442AE04FF0000918E0A6
:1016100020780A2806D11648406880792844C5B247
:10162000641C13E0227829463046FFF7E9FB104896
:10163000406800793044C6B2641C09F1010000F032
:10164000FF09C14502DA20780028E1D100BF08482F
:10165000406880792844C5B22326CD2D00DD02E004
:1016600020780028D1D100BFBDE8F09F0000002005
:101670002C0000202DE9F04106460C464FF4806115
:10168000394801F0BAFE0421384801F0BCFE0020C0
:10169000374908700321374801F0FEFD3548032122
:1016A000354A525C024452686FF30F022243324BB8
:1016B0005B5C03445A6000BF00BF2F4A525C8258F3
:1016C00042F010022C4B5B5CC25000BF00BF4FF0D9
:1016D00000602849886000BF00BF8010886000BF9C
:1016E000084603213246254F07F10C0307468C4676
:1016F000DFF8848018F80C8057F8088008F0C005DF
:1017000000BF402D08D11C4F7F5C0744FA601A4F80
:101710007F5C0744BB6007E0174F7F5C0744BA60FB
:10172000154F7F5C0744FB6000BF12480321124A3B
:10173000525C825842F001020F4B5B5CC25000BF0A
:1017400000BF0B4800780028FBD00321094801F0B6
:10175000A3FD0020064908704FF48061024801F0A3
:1017600052FEBDE8F081000000040240000002408B
:1017700058990020006402403AB900080030014046
:1017800010B504464FF48061074801F036FE04218D
:10179000064801F032FE204602F0F6F94FF480616F
:1017A000014801F030FE10BD00040240000002407C
:1017B00010B504464FF48061074801F01EFE042175
:1017C000064801F020FE204602F0DEF94FF4806169
:1017D000014801F018FE10BD000402400000024064
:1017E00070B5044600F004F906462546681C10B1A1
:1017F00004480078054400BF00F0FAF8801BA842B6
:10180000FAD370BD549E0020F8B502460B46002561
:10181000002400200021C7E0012606FA01F51E6819
:1018200006EA0504AC4274D11E7906F00306012EC7
:1018300004D01E7906F00306022E13D190684F00E3
:101840000326BE40B0434F00DE68BE403043906088
:10185000506801268E40B0431E79C6F300168E40B4
:10186000304350601E7906F00306032E09D0D0687D
:101870004F000326BE40B0434F009E68BE40304339
:10188000D0601E7906F00306022E13D1CF0802F1B4
:10189000200656F827004E07F70E0F26BE40B0432D
:1018A0004F07FF0E1E69BE403043CF0802F12006ED
:1018B00046F8270010684F000326BE40B0431E794B
:1018C00006F003064F00BE40304310605E6806F429
:1018D0004036002E67D000BF00260096344E366892
:1018E00046F48046324F3E603E46366806F48046F7
:1018F000009600BF00BF2F4E8F0856F827008E07B6
:10190000370F0F26BE40B0432B4EB24202D1002605
:1019100015E048E0294EB24201D101260FE0284EE1
:10192000B24201D102260AE0264EB24201D103267C
:1019300005E0254EB24201D1042600E007268F07BC
:101940003F0FBE4030431B4E8F0846F827001F4E06
:101950003068A0435E6806F4801606B120431B4E33
:101960003060361D3068A0435E6806F4001606B18C
:101970002043164E361D3060144E361F3068A0438B
:101980005E6806F4003606B12043104E361F306004
:10199000361F3068A0435E6806F4803606B12043E7
:1019A0000A4E083E3060491C1029FFF435AFF8BDDF
:1019B0004438024008380140000002400004024060
:1019C00000080240000C024000100240083C0140A8
:1019D00010B5426921EA020302EA010443EA044322
:1019E000836110BD0AB1816101E00B04836170471E
:1019F00001480068704700004C9E002010B5044666
:101A0000D4F8000302F0A0FF10BD10B50446D4F8CE
:101A1000000302F0A4FF10BD10B50446206804F0D6
:101A200047FF10BD10B50446206804F048FF10BD04
:101A3000024601EB410000EBC10302F1380000EB6C
:101A4000830090F828007047024601EB410000EB4C
:101A5000C10302F1380000EB83008069704770B564
:101A600004460D46002600BF94F8F802012801D173
:101A7000022070BD012084F8F80200BF29462068CA
:101A800004F02EFF00BF002084F8F80200BF3046AB
:101A9000EFE72DE9FE4F04460D4616461F46DDE9E9
:101AA0000D9ADDF8308000BF94F8F802012802D1C9
:101AB0000220BDE8FE8F012084F8F80200BF00215B
:101AC00005EB450000EBC50204F1380000EB820095
:101AD000417105EB450000EBC50104F1380000F849
:101AE000217005EB450000EBC50104F1380000EB67
:101AF0008100A0F808A005EB450000EBC50104F14A
:101B0000380000EB8100457005EB450000EBC50196
:101B100004F1380000EB810080F8079006F07F01A7
:101B200005EB450000EBC50204F1380000EB820034
:101B3000817006F0800080280AD1012105EB450064
:101B400000EBC50204F1380000EB8200C17009E02F
:101B5000002105EB450000EBC50204F1380000EB65
:101B60008200C17005EB450000EBC50104F13800AF
:101B700000EB810080F804808DE800073B46324688
:101B80002946206804F065FF834600BF002084F8E2
:101B9000F80200BF58468CE770472DE9F05F044615
:101BA0000D4616461F46DDE90C9BDDE90A8A05EB6A
:101BB000450000EBC50104F1380000EB8100C67060
:101BC00005EB450000EBC50104F1380000EB810096
:101BD000C771B8F1000F14D1032105EB450000EBEC
:101BE000C50204F1380000EB8200817205EB45006C
:101BF00000EBC50104F1380000EB810080F805B06E
:101C000009E0022105EB450000EBC50204F13800B4
:101C100000EB8200817237B1012F76D0022F33D0D2
:101C2000032F73D173E0B8F1010F2CD106BBB9F1CA
:101C3000000F09D1012105EB450000EBC50204F1BD
:101C4000380000EB8200417705EB450000EBC50151
:101C500004F1380000EB8100407F50B9002105EB12
:101C6000450000EBC50204F1380000EB82008172F0
:101C700009E0022105EB450000EBC50204F1380044
:101C800000EB820081728FE0FEB905EB450000EBAE
:101C9000C50104F1380000EB8100407F50B90021FC
:101CA00005EB450000EBC50204F1380000EB8200B3
:101CB000817229E0022105EB450000EBC50204F129
:101CC000380000EB820081721EE005EB450000EB5E
:101CD000C50104F1380000EB8100007F50B90021FC
:101CE00005EB450000EBC50204F1380000EB820073
:101CF000817209E0022105EB450000EBC50204F109
:101D0000380000EB820081724EE041E04BE0FEB90A
:101D100005EB450000EBC50104F1380000EB810044
:101D2000407F50B9002105EB450000EBC50204F1EE
:101D3000380000EB8200817229E0022105EB4500AA
:101D400000EBC50204F1380000EB820081721EE056
:101D500005EB450000EBC50104F1380000EB810004
:101D6000007F50B9002105EB450000EBC50204F1EE
:101D7000380000EB8200817209E0022105EB45008A
:101D800000EBC50204F1380000EB820081720BE029
:101D9000002105EB450000EBC50204F1380000EB23
:101DA0008200817200E000BF00BF05EB450000EB40
:101DB000C50104F1380000EB8100C0F80CA005EB70
:101DC000450000EBC50104F1380000EB8100C0F8CC
:101DD0001490002105EB450000EBC50204F138002A
:101DE00000EB820080F8281005EB450000EBC502EF
:101DF00004F1380000EB8200816105EB450000EB47
:101E0000C50104F1380000EB81004570002105EBAD
:101E1000450000EBC50204F1380000EB820080F8B9
:101E20002910227C05EB450303EBC50C04F13803B4
:101E300003EB8C01206804F0F5FEBDE8F09F2DE96E
:101E4000F04104462768B846206804F044FD0128A4
:101E50007DD1206805F06EF808B9BDE8F0812068F2
:101E600005F068F800F40010B0F5001F03D14FF43E
:101E7000001021684861206805F05CF800F48010CB
:101E8000B0F5801F03D14FF48010216848612068AD
:101E900005F050F800F08060B0F1806F03D14FF092
:101EA000806021684861206805F044F800F0020075
:101EB000022801D121684861206805F03BF800F054
:101EC0000050B0F1005F16D14FF00050216848611A
:101ED000D8F8400400F0010068B91021384604F039
:101EE000BBFC384604F08EFC0121206805F000F8A8
:101EF0002046FFF78AFD206805F01CF800F080708E
:101F0000B0F1807F02D1204601F06DF8206805F025
:101F100011F800F00800082805D1204600F0F8F874
:101F2000082021684861206805F004F8C0F300101B
:101F300080B12068806920F0100021688861204607
:101F400001F0ACF82068806940F0100000E030E05B
:101F500021688861206804F0EDFF00F00070B0F1A6
:101F6000007F26D1206804F055FE0646002519E0C2
:101F700005F00F0101208840304090B108F5A060C5
:101F800000EB4510006800F40040B0F5004F04D1AC
:101F9000E9B2204600F0E6F903E0E9B2204600F09D
:101FA000EFFC6D1CA068A842E2D84FF000702168D9
:101FB000486100BF51E730B58BB0044614B9012029
:101FC0000BB030BD256894F8F90228B9002084F8D8
:101FD000F802204600F02AF8032084F8F902E86BA2
:101FE00000F4807008B900212161206804F0B4FB7E
:101FF000282204F110016846FEF767FB94E80F0001
:1020000004F03CFB0121206804F0E7FF282204F1E2
:1020100010016846FEF759FB94E80F0004F0EAFE51
:10202000012084F8F9020020CAE7000010B586B04C
:102030000446142101A8FEF79CFB2068B0F1A04FD4
:102040004BD100BF002000902548006840F00100FF
:10205000234908600846006800F00100009000BFB6
:1020600000BF4815019000200290039001A91D486F
:10207000FFF7CAFB4FF4C0500190022002900020ED
:102080000390032004900A20059001A91548FFF74A
:10209000BBFB00BF1248001D006840F080001049E3
:1020A000091D086000BF002000900D481430006832
:1020B00040F480400A49143108600846006800F482
:1020C0008040009000BF00BF00BF002211464320A7
:1020D00000F0DCF8432000F0C9F806B010BD0000A5
:1020E000303802400000024010B50446D4F8000326
:1020F00002F000FD10BD10B50446D4F8000302F054
:10210000FDFC10BD10B50446206804F048FF10BD6A
:1021100010B50446D4F8000302F094FC10BD10B5CD
:10212000044600BF94F8F802012801D1022010BD36
:10213000012084F8F80200BF0121206804F036FB7A
:10214000206804F058FB00BF002084F8F80200BFAC
:1021500000BFECE710B5044600BF94F8F802012870
:1021600001D1022010BD012084F8F80200BF2068D0
:1021700004F067FF00BF002084F8F80200BF00BF32
:10218000F0E7000003480068034909780844014962
:10219000086070474C9E0020549E002010B50D48EA
:1021A000006840F400700B4908600846006840F47D
:1021B000806008600846006840F480700860032072
:1021C00000F0A2F80F2000F007F800F02BF8002034
:1021D00010BD0000003C024070B504460E48007877
:1021E0004FF47A71B1FBF0F00C490968B1FBF0F5DE
:1021F000284600F09DF808B1012070BD102C07D2D0
:1022000000222146501E00F041F80548046001E01C
:102210000120F2E70020F0E7549E0020589E0020A5
:10222000509E002008B500BF002000900E480068B6
:1022300040F480400C4908600846006800F4804083
:10224000009000BF00BF00BF00200090081F006882
:1022500040F08050091F08600846006800F0805078
:10226000009000BF00BF08BD443802400146084648
:10227000002809DB00F01F0301229A4043099B005C
:1022800003F1E023C3F8002100BF70472DE9F05FA0
:1022900080460D461646002704F0AAFF0746394639
:1022A0002A46334601F00700C0F1070ABAF1040FCD
:1022B00002D94FF0040A01E0C0F1070AD14600F14B
:1022C000040ABAF1070F02D24FF0000A01E0A0F1B0
:1022D000030AD4464FF0010A0AFA09FAAAF1010AE0
:1022E0000AEA020A0AFA0CFA4FF0010B0BFA0CFB8D
:1022F000ABF1010B0BEA030B4AEA0B042146404603
:1023000004F092FFBDE8F09F00BF00F00702064B0B
:1023100019684FF6FF031940044B0B4343EA0221AF
:10232000014B196000BF70470CED00E00000FA059A
:1023300070B504462546681EB0F1807F01D30120A8
:102340000FE0681E4FF0E02148610F214FF0FF3091
:1023500004F06AFF00204FF0E02188610720086147
:10236000002070BD2DE9F04705468846D5F800905D
:102370004E46444606F5A06000EB4410806800F02D
:102380000400042815D1042106F5A06000EB4410D8
:102390008160062104EB440000EBC40205F1380023
:1023A00000EB820080F82910E1B2286804F098FA66
:1023B0008EE006F5A06000EB4410806800F48070A9
:1023C000B0F5807F16D14FF4807106F5A06000EB68
:1023D00044108160072104EB440000EBC40205F1C6
:1023E000380000EB820080F82910E1B2286804F080
:1023F00077FA6DE006F5A06000EB4410806800F00D
:102400002000202806D1202106F5A06000EB441012
:1024100081605DE006F5A06000EB4410806800F08C
:102420000800082815D1082106F5A06000EB44102B
:102430008160052104EB440000EBC40205F1380083
:1024400000EB820080F82910E1B2286804F048FA15
:102450003EE006F5A06000EB4410806800F4806068
:10246000B0F5806F16D14FF4806106F5A06000EBE7
:1024700044108160082104EB440000EBC40205F124
:10248000380000EB820080F82910E1B2286804F0DF
:1024900027FA1DE006F5A06000EB4410806800F00C
:1024A0008000802814D1802106F5A06000EB441044
:1024B0008160062104EB440000EBC40205F1380002
:1024C00000EB820080F82910E1B2286804F008FAD5
:1024D00006F5A06000EB4410806800F40070B0F5D1
:1024E000007F0BD1E1B2286804F0FAF94FF40071D3
:1024F00006F5A06000EB441081603FE206F5A060A5
:1025000000EB4410806800F0010000287ED02869AC
:10251000C8B104EB440000EBC40105F1380000EB46
:102520008100016906F5A06000EB44100069C0F36A
:102530001200091A04EB440000EBC40205F1380054
:1025400000EB82008161012104EB440000EBC40236
:1025500005F1380000EB820080F82910002104EB1F
:10256000440000EBC40205F1380000EB8200416238
:10257000012106F5A06000EB4410816004EB4400EB
:1025800000EBC40105F1380000EB8100C07950B1C7
:1025900004EB440000EBC40105F1380000EB8100BE
:1025A000C07902280AD1E1B2286804F099F9102113
:1025B00006F5A06000EB441081603CE004EB4400B1
:1025C00000EBC40105F1380000EB8100C07903285D
:1025D0000AD004EB440000EBC40105F1380000EB25
:1025E0008100C079012826D106F5A06000EB4410D7
:1025F000006840F0005106F5A06000EB4410016057
:10260000012104EB440000EBC40200E058E005F1B6
:10261000380000EB820080F8281004EB440000EB47
:10262000C40305F1380000EB830090F82820E1B2E4
:102630002846FFF7B1FA286901282CD104EB4400A1
:1026400000EBC40105F1380000EB8100016904EBE7
:10265000440000EBC40205F1380000EB8200008961
:10266000B1FBF0F000F00100002813D004EB4400AF
:1026700000EBC40105F1380000EB8100007F80F021
:10268000010104EB440000EBC40205F1380000EB4B
:102690008200017772E104EB440000EBC40105F114
:1026A000380000EB8100007F80F0010104EB440062
:1026B00000EBC40205F1380000EB820001775DE118
:1026C00006F5A06000EB4410806800F002000228CC
:1026D0007BD104EB440000EBC40105F1380000EBB2
:1026E000810090F8290001280BD1012104EB44005E
:1026F00000EBC40205F1380000EB820080F82810DE
:10270000CEE004EB440000EBC40105F1380000EB1F
:10271000810090F8290005280BD1052104EB440025
:1027200000EBC40205F1380000EB820080F82810AD
:10273000B6E004EB440000EBC40105F1380000EB07
:10274000810090F8290006280BD004EB440000EB30
:10275000C40105F1380000EB810090F82900082839
:102760004ED104EB440000EBC40105F1380000EB4E
:102770008100406A401C04EB440101EBC40205F1F6
:10278000380101EB8201486204EB440000EBC40114
:1027900005F1380000EB8100406A022816D90021BB
:1027A00004EB440000EBC40205F1380000EB8200AA
:1027B0004162042104EB440000EBC40205F138003F
:1027C00000EB820080F828106AE07EE0022104EB32
:1027D000440000EBC40205F1380000EB820080F8F1
:1027E000281006F5A06000EB4410076827F080472A
:1027F00047F0004706F5A06000EB441007604FE08B
:1028000004EB440000EBC40105F1380000EB81004B
:1028100090F82900032819D1022104EB440000EBB1
:10282000C40205F1380000EB820080F8281006F59C
:10283000A06000EB4410076827F0804747F000478E
:1028400006F5A06000EB4410076029E004EB4400AB
:1028500000EBC40105F1380000EB810090F829007D
:1028600007281DD104EB440000EBC40105F138003A
:1028700000EB8100406A401C04EB440101EBC40200
:1028800005F1380101EB82014862042104EB4400A8
:1028900000EBC40205F1380000EB820080F828103C
:1028A000022106F5A06000EB4410816004EB4400B7
:1028B00000EBC40305F1380000EB830090F82820FA
:1028C000E1B22846FFF768F958E006F5A06000EB92
:1028D0004410806800F0100010284FD104EB440031
:1028E00000EBC40105F1380000EB8100C07903283A
:1028F0000ED1002104EB440000EBC40205F13800C6
:1029000000EB82004162E1B2286803F0E9FF2FE0AA
:1029100004EB440000EBC40105F1380000EB81003A
:10292000C07950B104EB440000EBC40105F138005C
:1029300000EB8100C07902281AD1002104EB440089
:1029400000EBC40205F1380000EB82004162286907
:1029500070B9032104EB440000EBC40205F1380018
:1029600000EB820080F82910E1B2286803F0B8FF7C
:10297000102106F5A06000EB44108160BDE8F087EF
:102980002DE9F04705460F46D5F800904E463C46E7
:1029900006F5A06000EB4410806800F004000428F5
:1029A00015D1042106F5A06000EB441081600621DA
:1029B00004EB440000EBC40205F1380000EB820098
:1029C00080F82910E1B2286803F08AFF09E306F5D0
:1029D000A06000EB4410806800F0200020282AD17D
:1029E000202106F5A06000EB4410816004EB440058
:1029F00000EBC40105F1380000EB810040790128AB
:102A0000E4D1002104EB440000EBC40205F13800DE
:102A100000EB82004171022104EB440000EBC40290
:102A200005F1380000EB820080F82810E1B2286838
:102A300003F056FFD5E206F5A06000EB4410806875
:102A400000F40070B0F5007F0BD14FF4007106F573
:102A5000A06000EB44108160E1B2286803F040FF01
:102A6000BFE206F5A06000EB4410806800F00100B2
:102A7000B8B3002104EB440000EBC40205F13800B8
:102A800000EB8200416206F5A06000EB4410806814
:102A900000F0400040280FD1012104EB440000EB7E
:102AA000C40205F1380000EB82004171402106F5B7
:102AB000A06000EB44108160012106F5A06000EBEE
:102AC0004410816004EB440000EBC40205F13800BF
:102AD00000EB820080F82910E1B2286803F000FFC3
:102AE0007FE2FFE706F5A06000EB4410806800F08D
:102AF0004000402829D1042104EB440000EBC4022B
:102B000005F1380000EB820080F82910012104EB68
:102B1000440000EBC40205F1380000EB8200417173
:102B2000002104EB440000EBC40205F1380000EB87
:102B300082004162E1B2286803F0D2FE402106F52E
:102B4000A06000EB441081604BE206F5A06000EB52
:102B50004410806800F00800082815D1082106F507
:102B6000A06000EB44108160052104EB440000EB01
:102B7000C40205F1380000EB820080F82910E1B2B0
:102B8000286803F0ADFE2CE206F5A06000EB4410CF
:102B9000806800F0100010283DD1002104EB4400B3
:102BA00000EBC40205F1380000EB82004162032112
:102BB00004EB440000EBC40205F1380000EB820096
:102BC00080F8291004EB440000EBC40105F1380043
:102BD00000EB8100407998B904EB440000EBC4019C
:102BE00005F1380000EB8100007948B9012104EBC0
:102BF000440000EBC40205F1380000EB8200417193
:102C0000E1B2286803F06CFE102106F5A06000EB2D
:102C100044108160E5E106F5A06000EB4410806897
:102C200000F08000802865D1286978B9062104EB7E
:102C3000440000EBC40205F1380000EB820080F88C
:102C40002910E1B2286803F04BFE4CE004EB44008D
:102C500000EBC40105F1380000EB8100406A401C24
:102C600004EB440101EBC40205F1380101EB8201E0
:102C7000486204EB440000EBC40105F1380000EBAE
:102C80008100406A022823D9002104EB440000EBB4
:102C9000C40205F1380000EB82004162042104EB1C
:102CA000440000EBC40205F1380000EB820080F81C
:102CB000281004EB440000EBC40305F1380000EBDE
:102CC000830090F82820E1B22846FEF765FF0AE06D
:102CD000022104EB440000EBC40205F1380000EBD4
:102CE000820080F82810802106F5A06000EB4410D7
:102CF000816076E106F5A06000EB4410806800F486
:102D00008060B0F5806F16D1082104EB440000EB21
:102D1000C40205F1380000EB820080F82910E1B20E
:102D2000286803F0DDFD4FF4806106F5A06000EB3C
:102D30004410816055E106F5A06000EB4410806806
:102D400000F002000228D4D104EB440000EBC401DF
:102D500005F1380000EB810090F8290001287DD1B1
:102D6000012104EB440000EBC40205F1380000EB44
:102D7000820080F8281004EB440000EBC40105F148
:102D8000380000EB8100C07902280AD004EB44002F
:102D900000EBC40105F1380000EB8100C079032885
:102DA0005AD1286998B904EB440000EBC40105F13D
:102DB000380000EB8100407F80F0010104EB44000B
:102DC00000EBC40205F1380000EB8200417728696E
:102DD000012841D104EB440000EBC40105F13800A7
:102DE00000EB81004069002836D004EB440000EB82
:102DF000C40105F1380000EB8100416904EB440097
:102E000000EBC40205F1380000EB820000890844A1
:102E1000401E04EB440101EBC40205F1380101EB53
:102E200082010989B0FBF1FA0AF00100002813D0F1
:102E300004EB440000EBC40105F1380000EB810015
:102E4000407F80F0010104EB440000EBC40205F177
:102E5000380000EB82004177AFE0FFE704EB44006D
:102E600000EBC40105F1380000EB810090F8290067
:102E700003280BD1022104EB440000EBC40205F14E
:102E8000380000EB820080F8281096E004EB440044
:102E900000EBC40105F1380000EB810090F8290037
:102EA00004280BD1022104EB440000EBC40205F11D
:102EB000380000EB820080F828107EE004EB44002C
:102EC00000EBC40105F1380000EB810090F8290007
:102ED00005280BD1052104EB440000EBC40205F1E9
:102EE000380000EB820080F8281066E004EB440014
:102EF00000EBC40105F1380000EB810090F82900D7
:102F000006280BD004EB440000EBC40105F13800A7
:102F100000EB810090F8290008284ED104EB440012
:102F200000EBC40105F1380000EB8100406A401C51
:102F300004EB440101EBC40205F1380101EB82010D
:102F4000486204EB440000EBC40105F1380000EBDB
:102F50008100406A022815D9002104EB440000EBEF
:102F6000C40205F1380000EB82004162042104EB49
:102F7000440000EBC40205F1380000EB820080F849
:102F800028101AE0022104EB440000EBC40205F112
:102F9000380000EB820080F8281006F5A06000EBF6
:102FA0004410D0F8008028F0804848F0004806F52A
:102FB000A06000EB4410C0F80080022106F5A0607C
:102FC00000EB4410816004EB440000EBC40305F106
:102FD000380000EB830090F82820E1B22846FEF785
:102FE000DBFDBDE8F0877CB5044626683546D5F89C
:102FF00040040190D5F840040090009820F02E0085
:103000000090019800F0020002280AD1019800F017
:10301000010010B12046FEF7F1FC009840F00200DC
:103020000090019800F0080008282AD1009840F08C
:1030300008000090019800F0040004281ED1A06947
:1030400002280FD1019800F4C020B0F5802F04D1E0
:103050000221206803F04CFF0CE00121206803F0FE
:1030600047FF07E0E068012804D14EF6602140F2F6
:10307000044041512046FFF73EF802E02046FFF7AA
:1030800033F8019800F02000202803D1009840F088
:10309000200000900098C5F840047CBD2DE9F84F51
:1030A0000546D5F800B05F462868D0F8208008F0C3
:1030B0000F04C8F343400090C8F30A160098022892
:1030C00006D003287DD005287CD007287BD1A3E03B
:1030D000002E79D004EB440000EBC40105F1380068
:1030E00000EB8100C06800286ED004EB440000EBC8
:1030F000C40105F1380000EB81008069811904EBFF
:10310000440000EBC40205F1380000EB8200406986
:10311000814272D8B2B204EB440303EBC40C05F154
:10312000380303EB8C03D968286803F008FF04EB2D
:10313000440000EBC40105F1380000EB8100C068D9
:10314000811904EB440000EBC40205F1380000EBE8
:103150008200C16004EB440000EBC40105F13800BB
:1031600000EB81008069811904EB440000EBC4028C
:1031700005F1380000EB8200816107F5A06000EBEB
:1031800044100069C0F3C94A04EB440000EBC401D9
:1031900005F1380000EB81000089B04238D1BAF166
:1031A000000F35D007F5A06000EB4410D0F8009078
:1031B00029F0804949F0004907F5A06000EB441070
:1031C00003E028E025E025E022E0C0F8009004EBD1
:1031D000440000EBC40105F1380000EB8100007FE2
:1031E00080F0010104EB440000EBC40205F138005B
:1031F00000EB820001770BE0FFE7042104EB4400C1
:1032000000EBC40205F1380000EB820080F82810C2
:1032100003E002E000BF00BF00BF00BFBDE8F88FC1
:1032200000BFFEE710B54FF400510B48FEF7D0FB8E
:103230000A48007820B1012805D0022809D105E00C
:1032400006F0B0FB05E006F0E7FD02E006F0EAFA62
:1032500000BF00BF10BD0000000802404B9E0020D0
:1032600008B5054909680143034A11601146096818
:103270000140009100BF08BD3038024008B5054943
:1032800009680143034A1160114609680140009131
:1032900000BF08BD44380240044A525C825822F004
:1032A0000102024B5B5CC250704700003AB9000853
:1032B000F0B502460B4600240021186890FAA0F0F1
:1032C000B0FA80F48AE00125A540186800EA0501FB
:1032D00000297DD05868012802D0586802281CD1E6
:1032E0009868956891FAA1F6B6FA86F677000326F3
:1032F000BE40B54391FAA1F6B6FA86F6760000FA1A
:1033000006F63543956000BFD86855688D4301FBCC
:1033100000F63543556000BF00BF1869D56891FAC3
:10332000A1F6B6FA86F677000326BE40B54391FAB9
:10333000A1F6B6FA86F6760000FA06F63543D560B1
:1033400000BF5868022831D191FAA1F0B0FA80F09C
:10335000082814D25869156A91FAA1F6B6FA86F6C9
:10336000B7000F26BE40B54391FAA1F6B6FA86F62D
:10337000B60000FA06F63543156200BF16E058693C
:10338000556A0E0A96FAA6F6B6FA86F6B7000F2622
:10339000BE40B5430E0A96FAA6F6B6FA86F6B60011
:1033A00000FA06F63543556200BF00BF586815683D
:1033B00091FAA1F6B6FA86F677000326BE40B54329
:1033C00091FAA1F6B6FA86F6760000FA06F600E063
:1033D00003E03543156000BF00BF641C1868E0407F
:1033E00000287FF470AFF0BD0246106908408842A3
:1033F00001D1012070470020FCE70A048261704778
:103400000A04826170478161704730B5024601232A
:1034100000BF1068C0F3801038BBD1E9000420431E
:103420008C682043CC6820430C6920434C692043BE
:103430008C692043CC6920430C6A204314684FF602
:10344000BF75AC4320431060506820F004004C6905
:1034500040EA14405060086AB0F5005F04D1486A41
:1034600084B2146100BF00BF0023D06920F4006063
:10347000D061184630BD0000014908607047000067
:10348000589E002010B502461368234882420BD094
:10349000B2F1804F08D02148824205D020488242B4
:1034A00002D02048824204D123F070004C6840EAE8
:1034B00004031948824214D0B2F1804F11D017484A
:1034C00082420ED0164882420BD01648824208D063
:1034D0001548824205D01548824202D014488242E3
:1034E00004D123F44070CC6840EA04031360886878
:1034F000D06200BF0888906200BF0748824203D1B3
:103500000869106300BF00BF00BF506940F00100B0
:10351000506100BF002010BD0000014000040040C9
:1035200000080040000C0040004001400044014001
:103530000048014070B54FF48000FFF791FE03F0A2
:103540004FFE05460022114600F0FEF904462146D2
:103550003B2003F055FE3B2003F034FE70BD00001D
:1035600070B5044625460CB9002500E001252A4621
:103570004FF480610148FEF735FA70BD000002404B
:1035800010B503490348FDF7A5FB0349087010BDBA
:103590005D9E0020BCB900085C9E002000B587B08D
:1035A000182101A8FDF7E5F80420FFF759FE802057
:1035B000FFF756FE0120FFF753FE0220FFF750FEF3
:1035C0004FF400512C48FFF71BFF40F20C412B48F1
:1035D000FFF716FF4FF480612948FFF711FF4FF402
:1035E000005001900120029000200390049005906B
:1035F00001A92148FFF75CFE012001900020029004
:103600000220059001A91D48FFF752FE0C200190F1
:10361000012002900320039000200490059001A94E
:103620001648FFF745FE4FF480600190012002909C
:103630000320039000200490059001A91048FFF793
:1036400037FE4FF470400190002002900220059058
:1036500001A90B48FFF72CFE4FF480600190012078
:103660000290002003900490059001A90348FFF701
:103670001FFE07B000BD000000080240000002402D
:103680000004024010B590B0282106A8FDF771F89B
:1036900018216846FDF76DF84FF48050FFF7EEFDF6
:1036A0000120FFF7DDFDA020009002200190032003
:1036B000029000200390049005200590694645483B
:1036C000FFF7F6FD444803214A06444B5B5CC358B0
:1036D00023F060631343414C645C035100BF4022FC
:1036E0003E4B5B5CC35823F0C00313433B4C645C0C
:1036F000035100BF9202394B5B5CC35823F4403343
:103700001343364C645C035100BF0022334B5B5CB7
:10371000C35823F490731343304C645C035100BFCF
:1037200000BF2E4B5B5CC35823F4007313432B4C38
:10373000645C035100BF0215284B5B5CC35823F443
:1037400080631343254C645C035100BF0022234B6C
:103750005B5CC35823F4C0531343204C645C035197
:1037600000BF00BF1D4B5B5CC35823F4C043134331
:103770001A4C645C035100BF00BF184A525C0244FB
:10378000526922F00402154B5B5C03445A6100BF8E
:10379000002006904FF48270079000200890099056
:1037A0000A904FF400700B9000200C900D900E903A
:1037B0000A200F9006A90A48FFF727FE00200849B3
:1037C000496821F010010143054A516000BF10B063
:1037D00010BD0000000002400064024065B900080E
:1037E0000030014030B585B014216846FCF7C1FFB8
:1037F0000120FFF743FD03F0F3FC054600221146CC
:1038000000F0A2F804462146192003F0F9FC192023
:1038100003F0D8FC4FF47A70ADF80000002001905E
:1038200047F23050029000200390049069461348FC
:10383000FFF728FE00BF1148006820F080000F4904
:10384000086000BF0020896844F2070291430143E9
:103850000A4A916000BF20201146496821F070019A
:103860000143516000BF00BF1046806820F0800017
:103870001146886000BF05B030BD00000000014067
:1038800010B501220A490B4801F027F808B1FDF7ED
:103890000BFA0949074802F09DFD08B1FDF704FA4B
:1038A000044802F000FE08B1FDF7FEF910BD00006B
:1038B000BD64000840AD00206C9E002010B5024899
:1038C00002F017FC10BD000040AD002000BFFEE775
:1038D00010B501220849094804F06CFB084908703A
:1038E0000846007818B107A000F052FA02E00DA0D7
:1038F00000F04EFA10BD00005D9E0020DCA8002004
:10390000100000204552524F5221212120696E2083
:103910006D6F756E74696E6720555342202E2E2E82
:103920000A0A0000555342206D6F756E746564205D
:103930007375636365737366756C6C792E2E2E0ACE
:103940000000000000BFFEE7F0B503460C4603F0A0
:103950000701C1F10700042801D9042001E0C1F1E9
:1039600007000646081D072801D2002000E0C81EF7
:1039700005460120B040401E2040A8400127AF402E
:103980007F1E17403843F0BD10B50248FEF757FAC6
:1039900010BD000018B100207047000010B54FF4B2
:1039A00000510B48FEF714F80A48007820B10128AE
:1039B00005D0022809D105E006F062F805E006F01E
:1039C0004DFA02E005F02FFF00BF00BF10BD000060
:1039D000000802404B9E00202DE9F047054688462E
:1039E00091461E464149284604F081FD4049087031
:1039F0000846007898B16420FCF76EFC82462A469F
:103A00003CA15046FCF7BEFC01215046FDF7CCFD21
:103A10005046FCF790FC36480078BDE8F08701225C
:103A200029463C4804F0F6FA314908700846007807
:103A3000A0B16420FCF750FC82462B462C4802784B
:103A400035A15046FCF79EFC01215046FDF7ACFD28
:103A50005046FCF770FC26480078DEE72D48C76822
:103A60003846FCF739FC044644B9012134A0FDF77F
:103A70009BFD284804F074FA1120CEE7374B3A46F4
:103A80002146244804F02FFC1949087008460078A4
:103A9000D0B16420FCF720FC82462B461448027803
:103AA0002FA15046FCF76EFC01215046FDF77CFD2E
:103AB0005046FCF740FC2046FCF73DFC154804F05E
:103AC0004FFA0B480078A8E7A8F1010000FB064177
:103AD00032464846FCF7B4FD2046FCF72CFC0D4866
:103AE00004F03EFA0248007897E700008C9E002020
:103AF000100000204552524F52212121202A2573C7
:103B00002A20646F6573206E6F7420657869737402
:103B10000A0A000010AB00204552524F52212121C9
:103B2000204E6F2E20256420696E206F70656E69AF
:103B30006E672066696C65202A25732A0A0A0000D0
:103B40004D656D6F727920616C6C6F636174696F24
:103B50006E206661696C65640A0A0000140000202A
:103B60004552524F52212121204E6F2E2025642094
:103B7000696E2072656164696E672066696C652094
:103B80002A25732A0A0A000000BF00BF0A49896873
:103B9000C1F340010029F8D00749087300BF00BFF6
:103BA00000BF0549896801F001010029F8D000BF74
:103BB0000149097B70470000003001407047000058
:103BC0002DE9F041D6B080460E4614460025601E11
:103BD000C4B2424640A109A8FCF7D4FB09A949A8F0
:103BE00004F035FB3D49087008460078002853D1A1
:103BF00000BF3B4949A804F04CFC3849087008460E
:103C0000007810B93648807D00B940E0B5EBC40FAC
:103C10003ADB601CB5EBC00F36DA3148007A00F0B1
:103C20001000A0B12E4916312EA0FCF7F5FD28B1E9
:103C30002B4916312EA0FCF7EFFD00B9D9E7284B30
:103C4000163332A21E2101A8FCF7B0FB06E0244B7C
:103C5000163321A21E2101A8FCF7A8FBA5EBC40185
:103C600001EB810202EBC10106EB810001A9FCF727
:103C7000A4FC681CA5EBC40101EB810202EBC101AD
:103C800006EB810181F83200681CC5B2B1E700BFC4
:103C900049A804F07BF900BFA5EBC400C7B213E04C
:103CA00007EB870101EBC70106EB810019A1FCF7C7
:103CB00084FC002007EB870101EBC70106EB8101C3
:103CC00081F83200781CC7B2082FE9DB034800787E
:103CD00056B0BDE8F0810000257300001000002000
:103CE0008C9E002053595354454D7E3100000000F6
:103CF00053797374656D20566F6C756D6520496ED0
:103D0000666F726D6174696F6E00000025732E44DA
:103D100049520000656D707479000000F0B5D3B0B1
:103D2000064600274FF48070FCF7D6FA054615B911
:103D3000002053B0F0BD334614A24FF480712846E2
:103D4000FCF734FB294646A804F081FA0446BCB9C6
:103D500000BF694646A804F09CFB044614B99DF8D0
:103D6000160000B908E09DF8080000F010000028D7
:103D7000EFD1781CC7B2ECE700BF46A804F006F903
:103D80002846FCF7D8FA3846D3E700002573000030
:103D9000704700002DE9FC4105460E460020FDF766
:103DA000BDFB4FF6FF70FDF783FB4E48FDF786FB2A
:103DB00032464DA16846FCF7E5FA4C4949688988C6
:103DC00001EB4101C1F1780188B249A21421FDF74C
:103DD000ABFB464949688988783188B26A46142124
:103DE000FDF7A2FB002479E004EB840000EBC400A3
:103DF00005EB800090F8330018B94FF4FC60FDF734
:103E000057FB04EB840000EBC40005EB800090F846
:103E1000322035A101A8FCF7B5FA34484068808803
:103E2000621C504302EB420200EB4200193081B2A7
:103E300001AA2320FDF778FB2C4A52689288631C64
:103E40005A4303EB430302EB4302193291B204EBF2
:103E5000840202EBC40205EB820292F83220092AA6
:103E600005DD224A526892885200233203E01F4A3D
:103E700052689288233290B22E22FCF7C1FF1B4B6E
:103E80005B689B88671C7B4307EB470703EB470393
:103E9000193399B204EB840303EBC40305EB8302EB
:103EA00004EB840303EBC40305EB830393F8323084
:103EB000092B06DD0D4B5B689B8803EB4303233323
:103EC00004E00A4B5B689B885B00233398B2FDF7E4
:103ED0002BFB4FF6FF70FDF7EBFA641C082C83DB1D
:103EE000BDE8FC8108000020256400002C000020B3
:103EF000506167650000000010B5FEF743F910BD82
:103F000070B503205049096821F0070101434E4A6A
:103F1000116000BF00BF00BF4B48006800F0070001
:103F20000328F8D180034949096821F4404101433D
:103F3000464A116000BF00BF4548006840F4803029
:103F40004349086000BF00BF00BF41480068C0F39C
:103F500040400028F8D04FF4800017214FF4B17290
:103F6000831140EA010444EA8214394D2D1D2D6865
:103F7000384E35402C43364D2D1D2C602C46246880
:103F800024F440341C432C6000BF430140EA010488
:103F900044EA82141C432D682F4E35402C432C4D8F
:103FA0002D1D2C6000BF00BF281F006840F08070EE
:103FB000291F086000BF00BF00BF25480068C0F38C
:103FC00040600028F8D0002021490831096821F01C
:103FD000F00101431E4A0832116000BF90141146DF
:103FE000096821F4E0510143116000BF002011462F
:103FF000096821F460410143116000BF02201146AD
:10400000096821F003010143116000BF00BF00BF38
:104010000F480830006800F00C000828F7D10F485E
:10402000FFF72AFA0F20FEF7D7F808B1FCF73CFE9D
:10403000002007498C31096821F080710143044A4E
:104040008C32116000BF70BD003C02400070004027
:10405000003802400080BFFF0080BFF044D4BB05A1
:104060000348006840F47000014908607047000090
:1040700088ED00E000BF0648006900F0010030B1A3
:1040800000BF6FF001000249086100BF00BF704728
:104090000000014010B54FF400510B48FDF798FCAB
:1040A0000A48007820B1012805D0022809D105E08E
:1040B00005F0F4FD05E005F0D3FE02E005F0B4FBE9
:1040C00000BF00BF10BD0000000802404B9E002052
:1040D00070B506460D46304600F029F904464FF605
:1040E000FF70844207D045F4004104F00F0206F54A
:1040F000617040F82210E0B270BD2DE9FF41074623
:104100000C4615461E460020012102230A468DE872
:10411000320003903146384600F047FD002004B0DD
:10412000BDE8F0812DE9FF4104460D4617461E46C5
:10413000DDF8288094F81D0308B14FF00008012035
:104140000223002231468DE8A101204600F02DFD1A
:10415000002004B0BDE8F08170B504460D46294644
:10416000204600F0DEFB002070BD70B504460D4611
:10417000A078012807D10221217401216174002156
:104180006182A582E18200221146204600F016F8E5
:1041900070BD2DE9FF4107460C4615461E4600201E
:1041A000012103460A468DE8320003903146384625
:1041B00000F0FBFC002004B0BDE8F0812DE9F041E7
:1041C00004460E4617460125A078012802D0022891
:1041D00019D107E0A660A781012121760220A070F5
:1041E000012511E0204600F01FF905460DB1032D11
:1041F00004D10120A0700021217603E0022D01D11D
:104200000120A07000E000BF00BF2846BDE8F0819B
:104210002DE9FF4104460D4617461E46DDF828806D
:1042200094F81D0308B14FF00008012000231A463E
:1042300031468DE8A101204600F0B7FC002004B013
:10424000BDE8F0817FB506460C46154600200821E2
:10425000CDE9000403460246CDE902102946304666
:1042600000F0A3FC002004B070BD10B50446204649
:10427000FDF7B6FA10BDF0B506460C46154600220D
:10428000002106F54E771AE002EB820000EBC20C2B
:1042900007F10A0000EB4C014879A04201D0FF2C45
:1042A0000BD18879A84201D0FF2D06D1C879984258
:1042B00001D0FF2B01D11046F0BD501CC2B2022A22
:1042C000E2D3FF20F8E70246102909D202F5617017
:1042D00030F82100C0F30E0302F5617040F8213080
:1042E000002070472DE9F04104460E4615461F4652
:1042F000DDF81880A078012812D146F080012174E1
:1043000006216174658205F47F40B0F5407F03D1DA
:1043100040F20941A18201E00021A182A4F81680A7
:10432000424639462046FFF749FFBDE8F081024684
:10433000002100BF0AE002F5617030F8210000F4AE
:10434000004008B908467047481CC1B21029F2D392
:104350004FF6FF70F7E710B502460B881478234438
:104360000B801378981810BDF8B507460C4607F176
:104370001C0633464FF40072002138460094FFF7C4
:10438000B1FF05462DB922463146384601F041FDC0
:1043900005462846F8BDF8B504460D4604F58E736B
:1043A0004FF48072002120460095FFF79BFF0646E0
:1043B00036B92A4604F58E7104F2263001F0D3FD99
:1043C0003046F8BD2DE9F84304460E4617461D4613
:1043D00046F4407204F58E73002120460095FFF7E5
:1043E00081FF8046B8F1000F05D12A46394604F511
:1043F0008E7001F063FE4046BDE8F8830146002060
:1044000031B1012906D0022906D0032908D105E0DF
:10441000002007E0022005E0012003E0022001E087
:10442000022000BF00BF7047F8B5044601270025F1
:10443000207E0C286FD2DFE800F0DD060F323E5000
:104440005E7A869AA8BD627904F110012046FFF7D2
:10445000F9FE02212176CEE06179204600F0E9FAEA
:104460000546012D14D1207C00F08006E08A38B189
:10447000802E02D10321217610E0052121760DE066
:10448000802E02D10921217608E00721217605E05E
:10449000042D01D0022D01D10B212176ABE0D4F8FF
:1044A000C403E0812379A2892046A168FFF771FE49
:1044B000042121769FE02179204600F0BAFA0546D2
:1044C000012D01D109212176052D01D1032703E01A
:1044D000042D01D10B2121768DE00120009063791C
:1044E000A2892046A168FFF793FED4F8C403E081B7
:1044F000062121767FE06179204600F09AFA054690
:10450000012D02D10721217610E0052D04D10C21C7
:10451000217603270AE06DE0022D02D105212176E4
:1045200004E0042D02D10B212176022763E02379D8
:10453000002211462046FFF72CFED4F8C403E08188
:104540000821217657E02179204600F072FA0546CD
:10455000012D03D10D212176002707E0042D02D182
:104560000B21217602E0052D00D1032743E0012035
:1045700000906379002211462046FFF749FED4F8E7
:10458000C403E0810A21217635E06179204600F0FC
:1045900050FA0546012D03D100270D21217608E0B0
:1045A000022D02D10921217603E0042D01D10B2136
:1045B000217620E0607E401CC1B26176022904D8D9
:1045C000012121760120A07013E006212046D4F8B5
:1045D000D42390470021617600BF00BF6179204657
:1045E000FFF771FE21792046FFF76DFE0020207055
:1045F000022700E000BF00BF3846F8BDFEB5044604
:10460000012601256078082874D2DFE800F004480C
:1046100074ABD2FDEFEE08212046FFF7BCFE054645
:1046200005BB94F82D13A17101206070A0790022C0
:1046300094F81D13CDE90012029094F81C332179EF
:104640008022204601F0D0FBA079002294F81D13AF
:10465000CDE90012029094F81C336179204601F0F4
:10466000C3FB1BE0032D19D100BF00BF94F81E034C
:10467000401C84F81E0394F81E03032804D900BFCD
:1046800000BF0D20207009E061792046FFF71BFE76
:1046900021792046FFF717FE002020700CE112213F
:1046A0002046FFF778FE054635B900BF00BF00BFC2
:1046B00000BF022060701CE0032D1AD100BF00BFB4
:1046C00094F81E03401C84F81E0394F81E0303286C
:1046D00004D900BF00BF0D2020700AE06179204698
:1046E000FFF7F1FD21792046FFF7EDFD0020607016
:1046F0002070E1E0DFE00121204601F098FE054650
:104700002DBB0220FFF7B1FD012184F81C1300BF6F
:1047100000BF03206070A079002294F81D13CDE93A
:104720000012029094F81C3321798022204601F077
:104730005BFBA079002294F81D13CDE900120290D2
:1047400094F81C336179204601F04EFB09E0032DFB
:1047500007D100BF00BF00BF00BF0D2020700020A8
:104760006070A9E009212046FFF7FEFD054615B956
:10477000042060701CE0032D1AD100BF00BF94F824
:104780001E03401C84F81E0394F81E03032804D95A
:1047900000BF00BF0D2020700AE061792046FFF7BE
:1047A00092FD21792046FFF78EFD00206070207079
:1047B00082E0B4F83A132046FFF7D6FD054615B956
:1047C000052060701FE0032D1DD100BF00BF94F8CD
:1047D0001E03401C84F81E0394F81E03032807D907
:1047E00000BF00BF0D2020700DE049E02AE00BE083
:1047F00061792046FFF767FD21792046FFF763FDC9
:1048000000206070207057E094F83403A8B194F849
:104810003413FF2304F58E722046FFF7D3FD0546BF
:1048200025B900BF00BF062060700AE0032D08D143
:1048300000BF00BF0620607003E000BF00BF06207D
:10484000607039E094F83503A8B194F83513FF236C
:1048500004F58E722046FFF7B5FD054625B900BF69
:1048600000BF072060700AE0032D08D100BF00BF21
:104870000720607003E000BF00BF072060701BE0EE
:1048800094F8360398B194F83613FF2304F58E722A
:104890002046FFF797FD05461DB900BF00BF002663
:1048A00008E0032D06D100BF00BF002602E000BFD4
:1048B00000BF002600E000BF00BF3046FEBD10B5BF
:1048C000044620780B2807D1D4F87C0320B1D4F813
:1048D0007C0381692046884710BD70B504460D46AB
:1048E00016461CB900BF00BF022070BD84F8CC631F
:1048F0000020C4F87C03C4F880032046FCF7A4F928
:10490000002184F8231384F8201384F8211384F8F9
:1049100022130DB1C4F8D453204600F09FF80020B4
:10492000E3E72DE9F04104460D460026002729461D
:10493000D4F8D003FDF793F806463046FFF75EFD46
:1049400007463846BDE8F0810146012281F8202360
:10495000002281F8212381F822230020704710B51E
:104960000446012184F82113002184F8201384F8DF
:104970002313204600F00AF921792046FFF7A3FC13
:1049800061792046FFF79FFC002010BD70B50546F9
:104990000C4695F8CC03012802D12046FEF7E0FD35
:1049A000C820FCF71DFF002070BD70B504460D4601
:1049B0002946D4F8D003FDF747F870BD70B504461A
:1049C0000125D4F8D003FDF72DF820B1012804D03B
:1049D000022806D103E0002505E0012503E00225B9
:1049E00001E0012500BF00BF284670BD30B5034679
:1049F00000BFD3F8D02301EB410404EBC10502F161
:104A0000380404EB8504E4784CB101EB410404EB79
:104A1000C10502F1380404EB8504207F08E001EBB6
:104A2000410404EBC10502F1380404EB8504607F06
:104A300030BD70B504460D462946D4F8D003FCF7C6
:104A4000F7FF70BD10B50446D4F8C403401CC4F889
:104A5000C4032046FFF733FF10BD000070B50446C5
:104A600094F8CC03012820D11148C0F80043C4F8C1
:104A7000D0034FF0A0400E49086008210C48816027
:104A80000121C16000210161022181610021C16118
:104A9000FDF791FA08B1FCF707F90548FCF7BCFFF0
:104AA00005462946204600F03CF8002070BD000075
:104AB00018B100202DE9FF5F04460D4616461F463B
:104AC000DDE90F9ADDF838804FF0000B00200390ED
:104AD0008DE800073B4632462946D4F8D003FCF760
:104AE000D8FF83465846FFF789FC0390039804B02B
:104AF000BDE8F09F002280F823237047012280F850
:104B00002323704770B5044600250026D4F8D0034F
:104B1000FDF7F8FA05462846FFF770FC06463046D2
:104B200070BDC0F8C413704730B50446D4F8D03314
:104B300001EB410000EBC10503F1380000EB8500FB
:104B4000C07848B101EB410000EBC10503F138002A
:104B500000EB8500027708E001EB410000EBC105A6
:104B600003F1380000EB85004277002030BD70B5BE
:104B7000044600250026D4F8D003FDF7D0FA0546F8
:104B80002846FFF73BFC0646304670BD70B504462C
:104B900000250026D4F8D003FDF7DCFA05462846A8
:104BA000FFF72CFC0646304670BD2DE9F04F87B06C
:104BB00004460D4616461F46DDE912ABDDE91089B5
:104BC0000020069005908DE8000F3B4632462946AE
:104BD000D4F8D003FCF7E1FF06900698FFF70EFC2F
:104BE0000590059807B0BDE8F08F2DE9F041044627
:104BF000884615460227D4F87C03C66915B1012DF5
:104C00000CD105E0F1792046FFF7AFFA074606E040
:104C1000B1792046FFF7A9FA074600E000BF00BFC0
:104C20003846BDE8F08100000246D2F87C03C16935
:104C3000054B4B65054B8B65012381F8503081F89E
:104C400052300020704700005553424350403020FE
:104C50002DE9F84F074688464FF001090126B24674
:104C60000025D7F87C03C469AB4694F850000C28A3
:104C700074D2DFE800F07306153C477481B5C0DFDD
:104C8000F2F084F86180022184F850100120009035
:104C900063791F2204F154013846FFF743FA0AE111
:104CA00061793846FFF7C5FE0546012D13D1E06D49
:104CB00068B194F8600000F08000802803D10321DF
:104CC00084F8501012E0052184F850100EE00721FE
:104CD00084F850100AE0022D03D1012184F850100D
:104CE00004E0052D02D10A2184F85010E3E0237975
:104CF00062898C2001593846FFF7FFF9042184F8B6
:104D00005010D8E021793846FFF793FE0546012D73
:104D10001ED16189E06D88420AD98C2000596189D1
:104D200001448C2001516189E06D411AE16501E087
:104D30000021E165E06D38B1237962898C20015949
:104D40003846FFF7DAF908E0072184F8501004E04C
:104D5000052D02D1092184F85010ACE0AAE0012011
:104D60000090637922898C2001593846FFF7DAF9DF
:104D7000062184F850109EE061793846FFF759FE0D
:104D80000546012D20D12189E06D88420AD98C2069
:104D90000059218901448C2001512189E06D411A7B
:104DA000E16501E00021E165E06D48B1012000907E
:104DB000637922898C2001593846FFF7B3F90EE058
:104DC000072184F850100AE0022D03D1052184F850
:104DD000501004E0052D02D10A2184F850106AE039
:104DE00023790D2204F178013846FFF786F908216E
:104DF00084F850105FE021793846FFF71AFE054627
:104E0000012D11D1012184F8501084F85210384638
:104E100000F0C6F88246BAF1000F02D14FF0000947
:104E200007E04FF0020904E0052D02D1092184F8C2
:104E3000501040E0002241463846FFF7D6FE0646B5
:104E40001EB9072184F8501004E0042E02D10B2172
:104E500084F850102FE022E0FFE701224146384657
:104E6000FFF7C3FE0646A6B961793846FFF7BEFDD7
:104E70008346CBF10100C2B261793846FFF754FE98
:104E8000217900223846FFF74FFE092184F850109F
:104E900004E0042E02D10B2184F850100BE03846B8
:104EA00000F01FF88146B9F1000F02D1012184F80A
:104EB000501000E000BF00BF4846BDE8F88F70B555
:104EC00004460D46A1212174FE21617400216182F6
:104ED000A1820121E182012229462046FFF76EF9D5
:104EE00070BD10B5044621212174FF216174002199
:104EF0006182A182E182002211462046FFF75EF91D
:104F000010BD2DE9F0410746D7F87C03C46901269E
:104F1000A07B20B1022803D003283BD132E000BFA0
:104F200021463846FFF7CBFF0646032E02D100206C
:104F3000207000262EBB2078022801D9022001E033
:104F40002078401C207000BF00BF002516E0022121
:104F500005EB850000EBC50204F1900000EB820038
:104F60008170002105EB850000EBC50204F1900083
:104F700000EB820080F83110681CC5B22078A8428E
:104F8000E5DC08E000213846FFF7EFF808B9E07BE0
:104F9000A07300E000BF00BF3046BDE8F081000014
:104FA00070B50546D5F87C03C469012621792846E9
:104FB000FFF7FBFC0D2801D0022619E00D49A06F78
:104FC000884214D1E16FA06D814211D194F8840020
:104FD00008B900260CE094F88400012801D10126CC
:104FE00006E094F88400022802D1022600E002269E
:104FF000304670BD555342532DE9F04104460D46ED
:105000001646D4F87C03C76920780B280ED105EB2F
:10501000850000EBC50207F1900000EB820134220D
:105020003046FBF752FB0020BDE8F0810220FBE791
:1050300070B50546D5F87C03C469607948B16179DB
:105040002846FFF789F861792846FFF73CF90020E8
:105050006071207948B121792846FFF77DF82179E0
:105060002846FFF730F900202071D5F87C03C0698D
:1050700040B1D5F87C13C869FBF75DF90020D5F87D
:105080007C13C861002070BDFEB50546D5F87C03D1
:105090000179502306222846FFF7EDF80646FF2E39
:1050A00001D0022E03D300BF00BF0220FEBD314657
:1050B000284601F0A8F907460FB10220F6E74FF4A1
:1050C0008070FBF709F9D5F87C13C861D5F87C032B
:1050D000C4691CB900BF00BF0220E7E74FF480712C
:1050E0002046FBF746FB06EB860000EBC60105F207
:1050F000423000EB4100007B00F08000A0B106EBE5
:10510000860000EBC60105F2423000EB4100007B57
:10511000E07106EB860000EBC60105F2423000EBC1
:105120004100C089608113E006EB860000EBC601F8
:1051300005F2423000EB4100007BA07106EB8600D7
:1051400000EBC60105F2423000EB4100C08920812E
:1051500006EB860000EBC60105F2423000EB410091
:10516000007D00F08000A0B106EB860000EBC601D8
:1051700005F2423000EB4100007DE07106EB860055
:1051800000EBC60105F2423000EB4100C08A6081AD
:1051900013E006EB860000EBC60105F2423000EB9F
:1051A0004100007DA07106EB860000EBC60105F210
:1051B000423000EB4100C08A2081002020736073E0
:1051C000A073A1792846FEF783FF6071E179284634
:1051D000FEF77EFF20712846FFF726FDA07980B1FB
:1051E000208970B12089022295F81D13CDE90012A3
:1051F000029095F81C33A2796179284600F0F4FDFD
:1052000001E0032052E7E07980B1608970B16089E4
:10521000022295F81D13CDE90012029095F81C3377
:10522000E2792179284600F0DFFD01E003203DE727
:10523000217900222846FFF777FC61790022284671
:10524000FFF772FC002031E72DE9F0410646D6F861
:105250007C03C4694FF0010801250127207B10B1B0
:1052600001287DD149E2B4F8F8002178884278DA43
:105270000121B4F8F80000EB800202EBC00204F157
:10528000900000EB82004170B4F8F80000EB800160
:1052900001EBC00104F1900010F8210009287CD234
:1052A000DFE800F0057B66FD17FC7B7BFB0000BFA1
:1052B00000BF0421B4F8F80000EB800202EBC0024A
:1052C00004F1900000F82210D6F8C403C4F8FC00E2
:1052D00007E2B4F8F80000EB800303EBC00304F12D
:1052E000900000EB830000F10F0294F8F8103046B4
:1052F00000F00FFB054685B900BF00BF00BF00BF2F
:1053000000BF00BF0221B4F8F80000EB800202EBFE
:10531000C00204F1900000F82210022D0BD10521EB
:10532000B4F8F80000EB800202EBC00204F1900038
:1053300000F822101BE0042D19D10121B4F8F80067
:1053400000EB800202EBC00204F1900000F8221092
:105350000221B4F8F80000EB800202EBC00201E089
:10536000CEE1BFE104F1900000EB82004170B8E1B2
:1053700094F8F810304600F04CFC0746F7BBB4F840
:10538000F80000EB800101EBC00104F1900000EB9C
:105390008100807880B1012100E0A1E1B4F8F8003B
:1053A00000EB800202EBC00204F1900000EB8200EF
:1053B00080F8311000BF0CE00021B4F8F80000EBD9
:1053C000800202EBC00204F1900000EB820080F842
:1053D00031100321B4F8F80000EB800202EBC002A8
:1053E00004F1900000F822100021B4F8F80000EB5E
:1053F000800202EBC00204F1900000E00DE000EB3F
:1054000082004170B4F8F80000EB800202EBC002A9
:1054100004F1900000EB82008170022F50D1B4F8AB
:10542000F80000EB800101EBC00104F1900000EBFB
:105430008100807802280ED00121B4F8F80000EB3A
:10544000800202EBC00204F1900000EB820080F8C1
:10545000311000BF0CE00021B4F8F80000EB80022E
:1054600002EBC00204F1900000EB820080F83110E2
:105470000521B4F8F80000EB800202EBC00204F151
:10548000900000F822100121B4F8F80000EB80022F
:1054900002EBC00204F1900002E01BE196E029E07B
:1054A00000EB820041700221B4F8F80000EB8002AA
:1054B00002EBC00204F1900000EB8200817018E062
:1054C000042F16D10121B4F8F80000EB800202EBA2
:1054D000C00204F1900000F822100221B4F8F80094
:1054E00000EB800202EBC00204F1900000EB8200AE
:1054F0004170F6E0B4F8F80000EB800303EBC00362
:1055000004F1900000EB8300021D94F8F81030467F
:1055100000F0D2FA054685BBB4F8F80000EB800134
:1055200001EBC00104F1900000EB810090F8310024
:10553000012805D100BF00BF00BF00BF00BF00BFF2
:105540000121B4F8F80000EB800202EBC00204F184
:10555000900000F822100021B4F8F80000EB80025F
:1055600002EBC00204F1900000EB82004170B4F83D
:10557000F800401CA4F8F80027E0FFE7022D0BD14B
:105580000521B4F8F80000EB800202EBC00204F140
:10559000900000F8221018E0042D16D10121B4F873
:1055A000F80000EB800202EBC00204F1900000F86A
:1055B00022100221B4F8F80000EB800202EBC002D6
:1055C00004F1900000EB820041708AE0B4F8F8002A
:1055D00000EB800303EBC00304F1900000EB8300B9
:1055E00000F10C0294F8F810304600F0B9FA0546C4
:1055F000F5BBB4F8F80000EB800101EBC00104F149
:10560000900000EB8100007B06280CD0B4F8F80075
:1056100000EB800101EBC00104F1900000EB810080
:10562000007B022814D1D6F8C403D4F8FC10401A29
:1056300042F2107188420BD20221B4F8F80000EB5C
:10564000800202EBC00204F1900000F8221048E052
:1056500000BF00BF00BF00BF00BF00BF0121B4F802
:10566000F80000EB800202EBC00204F1900000E0C1
:1056700006E000F82210B4F8F800401CA4F8F80086
:10568000022D0DD100BF00BF0821B4F8F80000EBD7
:10569000800202EBC00204F1900000F8221018E032
:1056A000042D16D10121B4F8F80000EB800202EBC2
:1056B000C00204F1900000F822100221B4F8F800B2
:1056C00000EB800202EBC00204F1900000EB8200CC
:1056D000417006E0B4F8F800401CA4F8F80000E0BF
:1056E00000BF09E00020A4F8F80001202073022187
:1056F0003046D6F8D423904703E04FF0000800E08E
:1057000000BF00BF4046BDE8F0812DE9F843804668
:105710000C46D8F87C03C5690127012604EB8400F8
:1057200000EBC40105F1900010F82100052860D0BD
:10573000062802D007287DD12DE00020034602462E
:1057400021460090404600F064F9064656B9012112
:1057500004EB840000EBC40205F1900000F8221075
:10576000002717E0022E09D1052104EB840000EB8D
:10577000C40205F1900000F822100BE0042E09D1BC
:10578000082104EB840000EBC40205F1900000F84E
:10579000221002276BE000200346024621460090BB
:1057A000404600F067FA064656B9012104EB840032
:1057B00000EBC40205F1900000F82210002717E06A
:1057C000022E09D1052104EB840000EBC40205F18F
:1057D000900000F822100BE0042E09D1082104EB00
:1057E000840000EBC40205F1900000F822100227AB
:1057F0003DE004EB840000EBC40105F1900000EBF8
:10580000810000F10C022146404600F0A9F906464D
:10581000DEB900BF00BF00BF00BF00BF00BF012155
:1058200004EB840000EBC40205F1900000F82210A4
:10583000022100E01AE004EB840000EBC40205F151
:10584000900000EB820041700227022E01D100BFC0
:105850000BE0042E09D1082104EB840000EBC40204
:1058600005F1900000F82210022700E000BF00BF01
:105870003846BDE8F8832DE9F84F04460E469146B8
:105880009A460A9FD4F87C03C56994F8200360B156
:1058900020780B2809D106EB860000EBC60105F144
:1058A000900010F82100012802D00220BDE8F88FF6
:1058B00006202873062106EB860000EBC60205F1E0
:1058C000900000F82210A5F8FA6053464A46314687
:1058D0002046009700F09DF8D4F8C4830FE0D4F878
:1058E000C403A0EB080142F210707843814202D851
:1058F00094F8200318B9012028730220D6E7314616
:105900002046FFF702FF0128E9D00120287300207C
:10591000CCE72DE9F04106460F4615464FF0020848
:10592000D6F87C03C46994F85200012802D00228FA
:105930006AD12FE02421E165802184F860100A21DA
:1059400084F86210002104F10F00C4F86310C4F859
:105950006710A4F86B10122184F863107807010E09
:1059600084F86410002184F8651084F866102421FE
:1059700084F86710002184F86810012184F8501021
:10598000022184F8521004F110008C2108514FF0CC
:1059900001083AE039463046FFF75AF98046B8F137
:1059A000000F30D122212846FAF7C1FE8C20005981
:1059B000007800F01F0068708C20005900784011BA
:1059C00028708C200059407800F08000802802D197
:1059D0000120A87001E00020A8708C200059816887
:1059E000C5F80310C068C5F807008C20005900F105
:1059F0001001102205F10C00FAF722FE8C2000594C
:105A0000006AC5F81D0000E000BF00BF4046BDE8C9
:105A1000F0812DE9FF4105460F461E464FF0020872
:105A2000D5F87C03C46994F85200012802D00228FA
:105A30003CD135E0B4F898100A984143E1658021E3
:105A400084F860100A2184F86210102104F16300C8
:105A5000FAF76DFE282184F863109DF80B1084F886
:105A600065109DF80A1084F866109DF8091084F8F6
:105A700067109DF8081084F868109DF8291084F8C4
:105A80006A109DF8281084F86B10012184F85010DA
:105A9000022184F852108C2006514FF0010806E0D4
:105AA00039462846FFF7D4F8804600E000BF00BF23
:105AB000404604B0BDE8F0812DE9F0410646884635
:105AC00015460127D6F87C03C46994F852000128D2
:105AD00002D002283FD11BE00821E165802184F833
